{
    "contractName": "WineToken",
    "abi": [
        {
            "inputs": [],
            "stateMutability": "nonpayable",
            "type": "constructor"
        },
        {
            "inputs": [
                {
                    "internalType": "address",
                    "name": "nftAddress",
                    "type": "address"
                },
                {
                    "internalType": "uint256",
                    "name": "tokenId",
                    "type": "uint256"
                }
            ],
            "name": "AlreadyListed",
            "type": "error"
        },
        {
            "inputs": [],
            "name": "NoProceeds",
            "type": "error"
        },
        {
            "inputs": [],
            "name": "NotApprovedForMarketplace",
            "type": "error"
        },
        {
            "inputs": [
                {
                    "internalType": "address",
                    "name": "nftAddress",
                    "type": "address"
                },
                {
                    "internalType": "uint256",
                    "name": "tokenId",
                    "type": "uint256"
                }
            ],
            "name": "NotListed",
            "type": "error"
        },
        {
            "inputs": [],
            "name": "NotOwner",
            "type": "error"
        },
        {
            "inputs": [],
            "name": "PriceMustBeAboveZero",
            "type": "error"
        },
        {
            "inputs": [
                {
                    "internalType": "address",
                    "name": "nftAddress",
                    "type": "address"
                },
                {
                    "internalType": "uint256",
                    "name": "tokenId",
                    "type": "uint256"
                },
                {
                    "internalType": "uint256",
                    "name": "price",
                    "type": "uint256"
                }
            ],
            "name": "PriceNotMet",
            "type": "error"
        },
        {
            "anonymous": false,
            "inputs": [
                {
                    "indexed": true,
                    "internalType": "address",
                    "name": "owner",
                    "type": "address"
                },
                {
                    "indexed": true,
                    "internalType": "address",
                    "name": "spender",
                    "type": "address"
                },
                {
                    "indexed": false,
                    "internalType": "uint256",
                    "name": "value",
                    "type": "uint256"
                }
            ],
            "name": "Approval",
            "type": "event"
        },
        {
            "anonymous": false,
            "inputs": [
                {
                    "indexed": true,
                    "internalType": "address",
                    "name": "buyer",
                    "type": "address"
                },
                {
                    "indexed": true,
                    "internalType": "address",
                    "name": "nftAddress",
                    "type": "address"
                },
                {
                    "indexed": true,
                    "internalType": "uint256",
                    "name": "tokenId",
                    "type": "uint256"
                },
                {
                    "indexed": false,
                    "internalType": "uint256",
                    "name": "price",
                    "type": "uint256"
                }
            ],
            "name": "ItemBought",
            "type": "event"
        },
        {
            "anonymous": false,
            "inputs": [
                {
                    "indexed": true,
                    "internalType": "address",
                    "name": "seller",
                    "type": "address"
                },
                {
                    "indexed": true,
                    "internalType": "address",
                    "name": "nftAddress",
                    "type": "address"
                },
                {
                    "indexed": true,
                    "internalType": "uint256",
                    "name": "tokenId",
                    "type": "uint256"
                }
            ],
            "name": "ItemCanceled",
            "type": "event"
        },
        {
            "anonymous": false,
            "inputs": [
                {
                    "indexed": true,
                    "internalType": "address",
                    "name": "seller",
                    "type": "address"
                },
                {
                    "indexed": true,
                    "internalType": "address",
                    "name": "nftAddress",
                    "type": "address"
                },
                {
                    "indexed": true,
                    "internalType": "uint256",
                    "name": "tokenId",
                    "type": "uint256"
                },
                {
                    "indexed": false,
                    "internalType": "uint256",
                    "name": "price",
                    "type": "uint256"
                }
            ],
            "name": "ItemListed",
            "type": "event"
        },
        {
            "anonymous": false,
            "inputs": [
                {
                    "indexed": true,
                    "internalType": "bytes32",
                    "name": "role",
                    "type": "bytes32"
                },
                {
                    "indexed": true,
                    "internalType": "bytes32",
                    "name": "previousAdminRole",
                    "type": "bytes32"
                },
                {
                    "indexed": true,
                    "internalType": "bytes32",
                    "name": "newAdminRole",
                    "type": "bytes32"
                }
            ],
            "name": "RoleAdminChanged",
            "type": "event"
        },
        {
            "anonymous": false,
            "inputs": [
                {
                    "indexed": true,
                    "internalType": "bytes32",
                    "name": "role",
                    "type": "bytes32"
                },
                {
                    "indexed": true,
                    "internalType": "address",
                    "name": "account",
                    "type": "address"
                },
                {
                    "indexed": true,
                    "internalType": "address",
                    "name": "sender",
                    "type": "address"
                }
            ],
            "name": "RoleGranted",
            "type": "event"
        },
        {
            "anonymous": false,
            "inputs": [
                {
                    "indexed": true,
                    "internalType": "bytes32",
                    "name": "role",
                    "type": "bytes32"
                },
                {
                    "indexed": true,
                    "internalType": "address",
                    "name": "account",
                    "type": "address"
                },
                {
                    "indexed": true,
                    "internalType": "address",
                    "name": "sender",
                    "type": "address"
                }
            ],
            "name": "RoleRevoked",
            "type": "event"
        },
        {
            "anonymous": false,
            "inputs": [
                {
                    "indexed": true,
                    "internalType": "address",
                    "name": "from",
                    "type": "address"
                },
                {
                    "indexed": true,
                    "internalType": "address",
                    "name": "to",
                    "type": "address"
                },
                {
                    "indexed": false,
                    "internalType": "uint256",
                    "name": "value",
                    "type": "uint256"
                }
            ],
            "name": "Transfer",
            "type": "event"
        },
        {
            "inputs": [],
            "name": "DEFAULT_ADMIN_ROLE",
            "outputs": [
                {
                    "internalType": "bytes32",
                    "name": "",
                    "type": "bytes32"
                }
            ],
            "stateMutability": "view",
            "type": "function"
        },
        {
            "inputs": [],
            "name": "MINTER_ROLE",
            "outputs": [
                {
                    "internalType": "bytes32",
                    "name": "",
                    "type": "bytes32"
                }
            ],
            "stateMutability": "view",
            "type": "function"
        },
        {
            "inputs": [
                {
                    "internalType": "address",
                    "name": "owner",
                    "type": "address"
                },
                {
                    "internalType": "address",
                    "name": "spender",
                    "type": "address"
                }
            ],
            "name": "allowance",
            "outputs": [
                {
                    "internalType": "uint256",
                    "name": "",
                    "type": "uint256"
                }
            ],
            "stateMutability": "view",
            "type": "function"
        },
        {
            "inputs": [
                {
                    "internalType": "address",
                    "name": "spender",
                    "type": "address"
                },
                {
                    "internalType": "uint256",
                    "name": "amount",
                    "type": "uint256"
                }
            ],
            "name": "approve",
            "outputs": [
                {
                    "internalType": "bool",
                    "name": "",
                    "type": "bool"
                }
            ],
            "stateMutability": "nonpayable",
            "type": "function"
        },
        {
            "inputs": [
                {
                    "internalType": "address",
                    "name": "account",
                    "type": "address"
                }
            ],
            "name": "balanceOf",
            "outputs": [
                {
                    "internalType": "uint256",
                    "name": "",
                    "type": "uint256"
                }
            ],
            "stateMutability": "view",
            "type": "function"
        },
        {
            "inputs": [
                {
                    "internalType": "address",
                    "name": "nftAddress",
                    "type": "address"
                },
                {
                    "internalType": "uint256",
                    "name": "tokenId",
                    "type": "uint256"
                }
            ],
            "name": "buyItem",
            "outputs": [],
            "stateMutability": "payable",
            "type": "function"
        },
        {
            "inputs": [
                {
                    "internalType": "address",
                    "name": "nftAddress",
                    "type": "address"
                },
                {
                    "internalType": "uint256",
                    "name": "tokenId",
                    "type": "uint256"
                }
            ],
            "name": "cancelListing",
            "outputs": [],
            "stateMutability": "nonpayable",
            "type": "function"
        },
        {
            "inputs": [],
            "name": "decimals",
            "outputs": [
                {
                    "internalType": "uint8",
                    "name": "",
                    "type": "uint8"
                }
            ],
            "stateMutability": "view",
            "type": "function"
        },
        {
            "inputs": [
                {
                    "internalType": "address",
                    "name": "spender",
                    "type": "address"
                },
                {
                    "internalType": "uint256",
                    "name": "subtractedValue",
                    "type": "uint256"
                }
            ],
            "name": "decreaseAllowance",
            "outputs": [
                {
                    "internalType": "bool",
                    "name": "",
                    "type": "bool"
                }
            ],
            "stateMutability": "nonpayable",
            "type": "function"
        },
        {
            "inputs": [
                {
                    "internalType": "address",
                    "name": "nftAddress",
                    "type": "address"
                },
                {
                    "internalType": "uint256",
                    "name": "tokenId",
                    "type": "uint256"
                }
            ],
            "name": "getListing",
            "outputs": [
                {
                    "components": [
                        {
                            "internalType": "uint256",
                            "name": "price",
                            "type": "uint256"
                        },
                        {
                            "internalType": "address",
                            "name": "seller",
                            "type": "address"
                        }
                    ],
                    "internalType": "struct WineToken.Listing",
                    "name": "",
                    "type": "tuple"
                }
            ],
            "stateMutability": "view",
            "type": "function"
        },
        {
            "inputs": [
                {
                    "internalType": "address",
                    "name": "seller",
                    "type": "address"
                }
            ],
            "name": "getProceeds",
            "outputs": [
                {
                    "internalType": "uint256",
                    "name": "",
                    "type": "uint256"
                }
            ],
            "stateMutability": "view",
            "type": "function"
        },
        {
            "inputs": [
                {
                    "internalType": "bytes32",
                    "name": "role",
                    "type": "bytes32"
                }
            ],
            "name": "getRoleAdmin",
            "outputs": [
                {
                    "internalType": "bytes32",
                    "name": "",
                    "type": "bytes32"
                }
            ],
            "stateMutability": "view",
            "type": "function"
        },
        {
            "inputs": [
                {
                    "internalType": "bytes32",
                    "name": "role",
                    "type": "bytes32"
                },
                {
                    "internalType": "address",
                    "name": "account",
                    "type": "address"
                }
            ],
            "name": "grantRole",
            "outputs": [],
            "stateMutability": "nonpayable",
            "type": "function"
        },
        {
            "inputs": [
                {
                    "internalType": "bytes32",
                    "name": "role",
                    "type": "bytes32"
                },
                {
                    "internalType": "address",
                    "name": "account",
                    "type": "address"
                }
            ],
            "name": "hasRole",
            "outputs": [
                {
                    "internalType": "bool",
                    "name": "",
                    "type": "bool"
                }
            ],
            "stateMutability": "view",
            "type": "function"
        },
        {
            "inputs": [
                {
                    "internalType": "address",
                    "name": "spender",
                    "type": "address"
                },
                {
                    "internalType": "uint256",
                    "name": "addedValue",
                    "type": "uint256"
                }
            ],
            "name": "increaseAllowance",
            "outputs": [
                {
                    "internalType": "bool",
                    "name": "",
                    "type": "bool"
                }
            ],
            "stateMutability": "nonpayable",
            "type": "function"
        },
        {
            "inputs": [
                {
                    "internalType": "address",
                    "name": "nftAddress",
                    "type": "address"
                },
                {
                    "internalType": "uint256",
                    "name": "tokenId",
                    "type": "uint256"
                },
                {
                    "internalType": "uint256",
                    "name": "price",
                    "type": "uint256"
                }
            ],
            "name": "listItem",
            "outputs": [],
            "stateMutability": "nonpayable",
            "type": "function"
        },
        {
            "inputs": [
                {
                    "internalType": "address",
                    "name": "to",
                    "type": "address"
                },
                {
                    "internalType": "uint256",
                    "name": "amount",
                    "type": "uint256"
                }
            ],
            "name": "mint",
            "outputs": [],
            "stateMutability": "nonpayable",
            "type": "function"
        },
        {
            "inputs": [],
            "name": "name",
            "outputs": [
                {
                    "internalType": "string",
                    "name": "",
                    "type": "string"
                }
            ],
            "stateMutability": "view",
            "type": "function"
        },
        {
            "inputs": [
                {
                    "internalType": "bytes32",
                    "name": "role",
                    "type": "bytes32"
                },
                {
                    "internalType": "address",
                    "name": "account",
                    "type": "address"
                }
            ],
            "name": "renounceRole",
            "outputs": [],
            "stateMutability": "nonpayable",
            "type": "function"
        },
        {
            "inputs": [
                {
                    "internalType": "bytes32",
                    "name": "role",
                    "type": "bytes32"
                },
                {
                    "internalType": "address",
                    "name": "account",
                    "type": "address"
                }
            ],
            "name": "revokeRole",
            "outputs": [],
            "stateMutability": "nonpayable",
            "type": "function"
        },
        {
            "inputs": [
                {
                    "internalType": "bytes4",
                    "name": "interfaceId",
                    "type": "bytes4"
                }
            ],
            "name": "supportsInterface",
            "outputs": [
                {
                    "internalType": "bool",
                    "name": "",
                    "type": "bool"
                }
            ],
            "stateMutability": "view",
            "type": "function"
        },
        {
            "inputs": [],
            "name": "symbol",
            "outputs": [
                {
                    "internalType": "string",
                    "name": "",
                    "type": "string"
                }
            ],
            "stateMutability": "view",
            "type": "function"
        },
        {
            "inputs": [],
            "name": "totalSupply",
            "outputs": [
                {
                    "internalType": "uint256",
                    "name": "",
                    "type": "uint256"
                }
            ],
            "stateMutability": "view",
            "type": "function"
        },
        {
            "inputs": [
                {
                    "internalType": "address",
                    "name": "to",
                    "type": "address"
                },
                {
                    "internalType": "uint256",
                    "name": "amount",
                    "type": "uint256"
                }
            ],
            "name": "transfer",
            "outputs": [
                {
                    "internalType": "bool",
                    "name": "",
                    "type": "bool"
                }
            ],
            "stateMutability": "nonpayable",
            "type": "function"
        },
        {
            "inputs": [
                {
                    "internalType": "address",
                    "name": "from",
                    "type": "address"
                },
                {
                    "internalType": "address",
                    "name": "to",
                    "type": "address"
                },
                {
                    "internalType": "uint256",
                    "name": "amount",
                    "type": "uint256"
                }
            ],
            "name": "transferFrom",
            "outputs": [
                {
                    "internalType": "bool",
                    "name": "",
                    "type": "bool"
                }
            ],
            "stateMutability": "nonpayable",
            "type": "function"
        },
        {
            "inputs": [
                {
                    "internalType": "address",
                    "name": "nftAddress",
                    "type": "address"
                },
                {
                    "internalType": "uint256",
                    "name": "tokenId",
                    "type": "uint256"
                },
                {
                    "internalType": "uint256",
                    "name": "newPrice",
                    "type": "uint256"
                }
            ],
            "name": "updateListing",
            "outputs": [],
            "stateMutability": "nonpayable",
            "type": "function"
        },
        {
            "inputs": [],
            "name": "withdrawProceeds",
            "outputs": [],
            "stateMutability": "nonpayable",
            "type": "function"
        }
    ],
    "bytecode": "60806040523480156200001157600080fd5b50604051806040016040528060098152602001682bb4b732aa37b5b2b760b91b8152506040518060400160405280600381526020016257544b60e81b815250816003908162000061919062000201565b50600462000070828262000201565b505060016006555062000085600033620000b7565b620000b17f9f2df0fed2c77648de5860a4cc508cd0818c85b8b8a1ab4ceeef8d981c8956a633620000b7565b620002cd565b60008281526005602090815260408083206001600160a01b038516845290915290205460ff16620001585760008281526005602090815260408083206001600160a01b03851684529091529020805460ff19166001179055620001173390565b6001600160a01b0316816001600160a01b0316837f2f8788117e7eff1d82e926ec794901d17c78024a50270940304540a733656f0d60405160405180910390a45b5050565b634e487b7160e01b600052604160045260246000fd5b600181811c908216806200018757607f821691505b602082108103620001a857634e487b7160e01b600052602260045260246000fd5b50919050565b601f821115620001fc57600081815260208120601f850160051c81016020861015620001d75750805b601f850160051c820191505b81811015620001f857828155600101620001e3565b5050505b505050565b81516001600160401b038111156200021d576200021d6200015c565b62000235816200022e845462000172565b84620001ae565b602080601f8311600181146200026d5760008415620002545750858301515b600019600386901b1c1916600185901b178555620001f8565b600085815260208120601f198616915b828110156200029e578886015182559484019460019091019084016200027d565b5085821015620002bd5787850151600019600388901b60f8161c191681555b5050505050600190811b01905550565b611c4e80620002dd6000396000f3fe60806040526004361061019c5760003560e01c806388700d1c116100ec578063a457c2d71161008a578063d539139311610064578063d539139314610510578063d547741f14610544578063dd62ed3e14610564578063f772adf11461058457600080fd5b8063a457c2d7146104b0578063a9059cbb146104d0578063b2ddee06146104f057600080fd5b806391d14854116100c657806391d148541461045357806395d89b41146104735780639f37092a14610488578063a217fddf1461049b57600080fd5b806388700d1c1461039157806389bfd38f1461041e5780639038e6931461043e57600080fd5b80632f2ff15d1161015957806336568abe1161013357806336568abe146102fb578063395093511461031b57806340c10f191461033b57806370a082311461035b57600080fd5b80632f2ff15d1461028757806330cfeda9146102a9578063313ce567146102df57600080fd5b806301ffc9a7146101a157806306fdde03146101d6578063095ea7b3146101f857806318160ddd1461021857806323b872dd14610237578063248a9ca314610257575b600080fd5b3480156101ad57600080fd5b506101c16101bc3660046118fd565b6105a4565b60405190151581526020015b60405180910390f35b3480156101e257600080fd5b506101eb6105db565b6040516101cd919061194b565b34801561020457600080fd5b506101c1610213366004611993565b61066d565b34801561022457600080fd5b506002545b6040519081526020016101cd565b34801561024357600080fd5b506101c16102523660046119bf565b610685565b34801561026357600080fd5b50610229610272366004611a00565b60009081526005602052604090206001015490565b34801561029357600080fd5b506102a76102a2366004611a19565b6106a9565b005b3480156102b557600080fd5b506102296102c4366004611a49565b6001600160a01b031660009081526008602052604090205490565b3480156102eb57600080fd5b50604051601281526020016101cd565b34801561030757600080fd5b506102a7610316366004611a19565b6106d3565b34801561032757600080fd5b506101c1610336366004611993565b610756565b34801561034757600080fd5b506102a7610356366004611993565b610778565b34801561036757600080fd5b50610229610376366004611a49565b6001600160a01b031660009081526020819052604090205490565b34801561039d57600080fd5b506103fa6103ac366004611993565b604080518082018252600080825260209182018190526001600160a01b0394851681526007825282812093815292815291819020815180830190925280548252600101549092169082015290565b60408051825181526020928301516001600160a01b031692810192909252016101cd565b34801561042a57600080fd5b506102a7610439366004611a66565b6107ac565b34801561044a57600080fd5b506102a7610a69565b34801561045f57600080fd5b506101c161046e366004611a19565b610b30565b34801561047f57600080fd5b506101eb610b5b565b6102a7610496366004611993565b610b6a565b3480156104a757600080fd5b50610229600081565b3480156104bc57600080fd5b506101c16104cb366004611993565b610d82565b3480156104dc57600080fd5b506101c16104eb366004611993565b610dfd565b3480156104fc57600080fd5b506102a761050b366004611993565b610e0b565b34801561051c57600080fd5b506102297f9f2df0fed2c77648de5860a4cc508cd0818c85b8b8a1ab4ceeef8d981c8956a681565b34801561055057600080fd5b506102a761055f366004611a19565b610f94565b34801561057057600080fd5b5061022961057f366004611a9b565b610fb9565b34801561059057600080fd5b506102a761059f366004611a66565b610fe4565b60006001600160e01b03198216637965db0b60e01b14806105d557506301ffc9a760e01b6001600160e01b03198316145b92915050565b6060600380546105ea90611ac9565b80601f016020809104026020016040519081016040528092919081815260200182805461061690611ac9565b80156106635780601f1061063857610100808354040283529160200191610663565b820191906000526020600020905b81548152906001019060200180831161064657829003601f168201915b5050505050905090565b60003361067b81858561119b565b5060019392505050565b6000336106938582856112bf565b61069e858585611339565b506001949350505050565b6000828152600560205260409020600101546106c4816114dd565b6106ce83836114ea565b505050565b6001600160a01b03811633146107485760405162461bcd60e51b815260206004820152602f60248201527f416363657373436f6e74726f6c3a2063616e206f6e6c792072656e6f756e636560448201526e103937b632b9903337b91039b2b63360891b60648201526084015b60405180910390fd5b6107528282611570565b5050565b60003361067b8185856107698383610fb9565b6107739190611b19565b61119b565b7f9f2df0fed2c77648de5860a4cc508cd0818c85b8b8a1ab4ceeef8d981c8956a66107a2816114dd565b6106ce83836115d7565b6001600160a01b03808416600090815260076020908152604080832086845282529182902082518084019093528054808452600190910154909316908201528491849133911561082157604051634a5568d560e01b81526001600160a01b03851660048201526024810184905260440161073f565b6040516331a9108f60e11b81526004810187905287908790339083906000906001600160a01b03831690636352211e90602401602060405180830381865afa158015610871573d6000803e3d6000fd5b505050506040513d601f19601f820116820180604052508101906108959190611b2c565b9050806001600160a01b0316836001600160a01b0316146108c9576040516330cd747160e01b815260040160405180910390fd5b60008a116108ea5760405163e1abbfc560e01b815260040160405180910390fd5b60405163020604bf60e21b8152600481018c90528c9030906001600160a01b0383169063081812fc90602401602060405180830381865afa158015610933573d6000803e3d6000fd5b505050506040513d601f19601f820116820180604052508101906109579190611b2c565b6001600160a01b03161461097e57604051634be3a2c560e01b815260040160405180910390fd5b60405180604001604052808c8152602001336001600160a01b0316815250600760008f6001600160a01b03166001600160a01b0316815260200190815260200160002060008e81526020019081526020016000206000820151816000015560208201518160010160006101000a8154816001600160a01b0302191690836001600160a01b031602179055509050508b8d6001600160a01b0316336001600160a01b03167fd547e933094f12a9159076970143ebe73234e64480317844b0dcb36117116de48e604051610a5291815260200190565b60405180910390a450505050505050505050505050565b3360009081526008602052604090205480610a975760405163c4d8fa8760e01b815260040160405180910390fd5b336000818152600860205260408082208290555190919083908381818185875af1925050503d8060008114610ae8576040519150601f19603f3d011682016040523d82523d6000602084013e610aed565b606091505b50509050806107525760405162461bcd60e51b815260206004820152600f60248201526e151c985b9cd9995c8819985a5b1959608a1b604482015260640161073f565b60009182526005602090815260408084206001600160a01b0393909316845291905290205460ff1690565b6060600480546105ea90611ac9565b6001600160a01b03808316600090815260076020908152604080832085845282529182902082518084019093528054808452600190910154909316908201528391839190610bdd57604051631a0c522360e21b81526001600160a01b03841660048201526024810183905260440161073f565b610be5611696565b6001600160a01b038086166000908152600760209081526040808320888452825291829020825180840190935280548084526001909101549093169082015290341015610c61578051604051637c93456560e01b81526001600160a01b038816600482015260248101879052604481019190915260640161073f565b6020808201516001600160a01b031660009081526008909152604081208054349290610c8e908490611b19565b90915550506001600160a01b0386811660008181526007602090815260408083208a84528252808320928355600190920180546001600160a01b03191690558401519051632142170760e11b81529216600483015233602483015260448201879052906342842e0e90606401600060405180830381600087803b158015610d1457600080fd5b505af1158015610d28573d6000803e3d6000fd5b505082516040519081528792506001600160a01b038916915033907f263223b1dd81e51054a4e6f791d45a4a1ddb4aadcd93a2dfd892615c3fdac1879060200160405180910390a450610d7b6001600655565b5050505050565b60003381610d908286610fb9565b905083811015610df05760405162461bcd60e51b815260206004820152602560248201527f45524332303a2064656372656173656420616c6c6f77616e63652062656c6f77604482015264207a65726f60d81b606482015260840161073f565b61069e828686840361119b565b60003361067b818585611339565b6040516331a9108f60e11b81526004810182905282908290339083906000906001600160a01b03831690636352211e90602401602060405180830381865afa158015610e5b573d6000803e3d6000fd5b505050506040513d601f19601f82011682018060405250810190610e7f9190611b2c565b9050806001600160a01b0316836001600160a01b031614610eb3576040516330cd747160e01b815260040160405180910390fd5b6001600160a01b0380881660009081526007602090815260408083208a845282529182902082518084019093528054808452600190910154909316908201528891889190610f2657604051631a0c522360e21b81526001600160a01b03841660048201526024810183905260440161073f565b6001600160a01b038a1660008181526007602090815260408083208d845290915280822082815560010180546001600160a01b0319169055518b929133917f9ba1a3cb55ce8d63d072a886f94d2a744f50cddf82128e897d0661f5ec6231589190a450505050505050505050565b600082815260056020526040902060010154610faf816114dd565b6106ce8383611570565b6001600160a01b03918216600090815260016020908152604080832093909416825291909152205490565b6001600160a01b0380841660009081526007602090815260408083208684528252918290208251808401909352805480845260019091015490931690820152849184919061105757604051631a0c522360e21b81526001600160a01b03841660048201526024810183905260440161073f565b61105f611696565b6040516331a9108f60e11b81526004810186905286908690339083906000906001600160a01b03831690636352211e90602401602060405180830381865afa1580156110af573d6000803e3d6000fd5b505050506040513d601f19601f820116820180604052508101906110d39190611b2c565b9050806001600160a01b0316836001600160a01b031614611107576040516330cd747160e01b815260040160405180910390fd5b886000036111285760405163e1abbfc560e01b815260040160405180910390fd5b6001600160a01b038b1660008181526007602090815260408083208e84528252918290208c905590518b81528c929133917fd547e933094f12a9159076970143ebe73234e64480317844b0dcb36117116de4910160405180910390a450505050506111936001600655565b505050505050565b6001600160a01b0383166111fd5760405162461bcd60e51b8152602060048201526024808201527f45524332303a20617070726f76652066726f6d20746865207a65726f206164646044820152637265737360e01b606482015260840161073f565b6001600160a01b03821661125e5760405162461bcd60e51b815260206004820152602260248201527f45524332303a20617070726f766520746f20746865207a65726f206164647265604482015261737360f01b606482015260840161073f565b6001600160a01b0383811660008181526001602090815260408083209487168084529482529182902085905590518481527f8c5be1e5ebec7d5bd14f71427d1e84f3dd0314c0f7b2291e5b200ac8c7c3b925910160405180910390a3505050565b60006112cb8484610fb9565b9050600019811461133357818110156113265760405162461bcd60e51b815260206004820152601d60248201527f45524332303a20696e73756666696369656e7420616c6c6f77616e6365000000604482015260640161073f565b611333848484840361119b565b50505050565b6001600160a01b03831661139d5760405162461bcd60e51b815260206004820152602560248201527f45524332303a207472616e736665722066726f6d20746865207a65726f206164604482015264647265737360d81b606482015260840161073f565b6001600160a01b0382166113ff5760405162461bcd60e51b815260206004820152602360248201527f45524332303a207472616e7366657220746f20746865207a65726f206164647260448201526265737360e81b606482015260840161073f565b6001600160a01b038316600090815260208190526040902054818110156114775760405162461bcd60e51b815260206004820152602660248201527f45524332303a207472616e7366657220616d6f756e7420657863656564732062604482015265616c616e636560d01b606482015260840161073f565b6001600160a01b03848116600081815260208181526040808320878703905593871680835291849020805487019055925185815290927fddf252ad1be2c89b69c2b068fc378daa952ba7f163c4a11628f55a4df523b3ef910160405180910390a3611333565b6114e781336116ef565b50565b6114f48282610b30565b6107525760008281526005602090815260408083206001600160a01b03851684529091529020805460ff1916600117905561152c3390565b6001600160a01b0316816001600160a01b0316837f2f8788117e7eff1d82e926ec794901d17c78024a50270940304540a733656f0d60405160405180910390a45050565b61157a8282610b30565b156107525760008281526005602090815260408083206001600160a01b0385168085529252808320805460ff1916905551339285917ff6391f5c32d9c69d2a47ea670b442974b53935d1edc7fd64eb21e047a839171b9190a45050565b6001600160a01b03821661162d5760405162461bcd60e51b815260206004820152601f60248201527f45524332303a206d696e7420746f20746865207a65726f206164647265737300604482015260640161073f565b806002600082825461163f9190611b19565b90915550506001600160a01b038216600081815260208181526040808320805486019055518481527fddf252ad1be2c89b69c2b068fc378daa952ba7f163c4a11628f55a4df523b3ef910160405180910390a35050565b6002600654036116e85760405162461bcd60e51b815260206004820152601f60248201527f5265656e7472616e637947756172643a207265656e7472616e742063616c6c00604482015260640161073f565b6002600655565b6116f98282610b30565b6107525761170681611748565b61171183602061175a565b604051602001611722929190611b49565b60408051601f198184030181529082905262461bcd60e51b825261073f9160040161194b565b60606105d56001600160a01b03831660145b60606000611769836002611bbe565b611774906002611b19565b67ffffffffffffffff81111561178c5761178c611bd5565b6040519080825280601f01601f1916602001820160405280156117b6576020820181803683370190505b509050600360fc1b816000815181106117d1576117d1611beb565b60200101906001600160f81b031916908160001a905350600f60fb1b8160018151811061180057611800611beb565b60200101906001600160f81b031916908160001a9053506000611824846002611bbe565b61182f906001611b19565b90505b60018111156118a7576f181899199a1a9b1b9c1cb0b131b232b360811b85600f166010811061186357611863611beb565b1a60f81b82828151811061187957611879611beb565b60200101906001600160f81b031916908160001a90535060049490941c936118a081611c01565b9050611832565b5083156118f65760405162461bcd60e51b815260206004820181905260248201527f537472696e67733a20686578206c656e67746820696e73756666696369656e74604482015260640161073f565b9392505050565b60006020828403121561190f57600080fd5b81356001600160e01b0319811681146118f657600080fd5b60005b8381101561194257818101518382015260200161192a565b50506000910152565b602081526000825180602084015261196a816040850160208701611927565b601f01601f19169190910160400192915050565b6001600160a01b03811681146114e757600080fd5b600080604083850312156119a657600080fd5b82356119b18161197e565b946020939093013593505050565b6000806000606084860312156119d457600080fd5b83356119df8161197e565b925060208401356119ef8161197e565b929592945050506040919091013590565b600060208284031215611a1257600080fd5b5035919050565b60008060408385031215611a2c57600080fd5b823591506020830135611a3e8161197e565b809150509250929050565b600060208284031215611a5b57600080fd5b81356118f68161197e565b600080600060608486031215611a7b57600080fd5b8335611a868161197e565b95602085013595506040909401359392505050565b60008060408385031215611aae57600080fd5b8235611ab98161197e565b91506020830135611a3e8161197e565b600181811c90821680611add57607f821691505b602082108103611afd57634e487b7160e01b600052602260045260246000fd5b50919050565b634e487b7160e01b600052601160045260246000fd5b808201808211156105d5576105d5611b03565b600060208284031215611b3e57600080fd5b81516118f68161197e565b7f416363657373436f6e74726f6c3a206163636f756e7420000000000000000000815260008351611b81816017850160208801611927565b7001034b99036b4b9b9b4b733903937b6329607d1b6017918401918201528351611bb2816028840160208801611927565b01602801949350505050565b80820281158282048414176105d5576105d5611b03565b634e487b7160e01b600052604160045260246000fd5b634e487b7160e01b600052603260045260246000fd5b600081611c1057611c10611b03565b50600019019056fea2646970667358221220a22b76b0d9347706d7235e52280a5b0ac5e2b71335ee268e04cc03084cf781b864736f6c63430008110033",
    "sourcePath": "/Users/macbookproretina/Desktop/progetti personali/nft-marketplace/contracts/contracts/NFTMarketplace.sol",
    "compiler": {
        "name": "solc",
        "version": "0.8.17+commit.8df45f5f"
    },
    "functionHashes": {
        "DEFAULT_ADMIN_ROLE()": "a217fddf",
        "MINTER_ROLE()": "d5391393",
        "allowance(address,address)": "dd62ed3e",
        "approve(address,uint256)": "095ea7b3",
        "balanceOf(address)": "70a08231",
        "buyItem(address,uint256)": "9f37092a",
        "cancelListing(address,uint256)": "b2ddee06",
        "decimals()": "313ce567",
        "decreaseAllowance(address,uint256)": "a457c2d7",
        "getListing(address,uint256)": "88700d1c",
        "getProceeds(address)": "30cfeda9",
        "getRoleAdmin(bytes32)": "248a9ca3",
        "grantRole(bytes32,address)": "2f2ff15d",
        "hasRole(bytes32,address)": "91d14854",
        "increaseAllowance(address,uint256)": "39509351",
        "listItem(address,uint256,uint256)": "89bfd38f",
        "mint(address,uint256)": "40c10f19",
        "name()": "06fdde03",
        "renounceRole(bytes32,address)": "36568abe",
        "revokeRole(bytes32,address)": "d547741f",
        "supportsInterface(bytes4)": "01ffc9a7",
        "symbol()": "95d89b41",
        "totalSupply()": "18160ddd",
        "transfer(address,uint256)": "a9059cbb",
        "transferFrom(address,address,uint256)": "23b872dd",
        "updateListing(address,uint256,uint256)": "f772adf1",
        "withdrawProceeds()": "9038e693"
    },
    "gasEstimates": {
        "creation": {
            "codeDepositCost": "1449200",
            "executionCost": "infinite",
            "totalCost": "infinite"
        },
        "external": {
            "DEFAULT_ADMIN_ROLE()": "306",
            "MINTER_ROLE()": "239",
            "allowance(address,address)": "infinite",
            "approve(address,uint256)": "24652",
            "balanceOf(address)": "2645",
            "buyItem(address,uint256)": "infinite",
            "cancelListing(address,uint256)": "infinite",
            "decimals()": "267",
            "decreaseAllowance(address,uint256)": "26978",
            "getListing(address,uint256)": "4956",
            "getProceeds(address)": "2599",
            "getRoleAdmin(bytes32)": "2578",
            "grantRole(bytes32,address)": "infinite",
            "hasRole(bytes32,address)": "2698",
            "increaseAllowance(address,uint256)": "27033",
            "listItem(address,uint256,uint256)": "infinite",
            "mint(address,uint256)": "infinite",
            "name()": "infinite",
            "renounceRole(bytes32,address)": "29045",
            "revokeRole(bytes32,address)": "infinite",
            "supportsInterface(bytes4)": "450",
            "symbol()": "infinite",
            "totalSupply()": "2371",
            "transfer(address,uint256)": "51096",
            "transferFrom(address,address,uint256)": "infinite",
            "updateListing(address,uint256,uint256)": "infinite",
            "withdrawProceeds()": "infinite"
        }
    }
}