{
  "contractName": "WineNFT",
  "abi": [
    {
      "inputs": [
        {
          "internalType": "string",
          "name": "_name",
          "type": "string"
        },
        {
          "internalType": "string",
          "name": "_symbol",
          "type": "string"
        },
        {
          "internalType": "uint256",
          "name": "_royalityFee",
          "type": "uint256"
        },
        {
          "internalType": "address",
          "name": "_artist",
          "type": "address"
        }
      ],
      "stateMutability": "nonpayable",
      "type": "constructor"
    },
    {
      "anonymous": false,
      "inputs": [
        {
          "indexed": true,
          "internalType": "address",
          "name": "owner",
          "type": "address"
        },
        {
          "indexed": true,
          "internalType": "address",
          "name": "approved",
          "type": "address"
        },
        {
          "indexed": true,
          "internalType": "uint256",
          "name": "tokenId",
          "type": "uint256"
        }
      ],
      "name": "Approval",
      "type": "event"
    },
    {
      "anonymous": false,
      "inputs": [
        {
          "indexed": true,
          "internalType": "address",
          "name": "owner",
          "type": "address"
        },
        {
          "indexed": true,
          "internalType": "address",
          "name": "operator",
          "type": "address"
        },
        {
          "indexed": false,
          "internalType": "bool",
          "name": "approved",
          "type": "bool"
        }
      ],
      "name": "ApprovalForAll",
      "type": "event"
    },
    {
      "anonymous": false,
      "inputs": [
        {
          "indexed": true,
          "internalType": "address",
          "name": "previousOwner",
          "type": "address"
        },
        {
          "indexed": true,
          "internalType": "address",
          "name": "newOwner",
          "type": "address"
        }
      ],
      "name": "OwnershipTransferred",
      "type": "event"
    },
    {
      "anonymous": false,
      "inputs": [
        {
          "indexed": false,
          "internalType": "uint256",
          "name": "id",
          "type": "uint256"
        },
        {
          "indexed": true,
          "internalType": "address",
          "name": "owner",
          "type": "address"
        },
        {
          "indexed": false,
          "internalType": "uint256",
          "name": "cost",
          "type": "uint256"
        },
        {
          "indexed": false,
          "internalType": "string",
          "name": "metadataURI",
          "type": "string"
        },
        {
          "indexed": false,
          "internalType": "uint256",
          "name": "timestamp",
          "type": "uint256"
        }
      ],
      "name": "Sale",
      "type": "event"
    },
    {
      "anonymous": false,
      "inputs": [
        {
          "indexed": true,
          "internalType": "address",
          "name": "from",
          "type": "address"
        },
        {
          "indexed": true,
          "internalType": "address",
          "name": "to",
          "type": "address"
        },
        {
          "indexed": true,
          "internalType": "uint256",
          "name": "tokenId",
          "type": "uint256"
        }
      ],
      "name": "Transfer",
      "type": "event"
    },
    {
      "inputs": [
        {
          "internalType": "address",
          "name": "to",
          "type": "address"
        },
        {
          "internalType": "uint256",
          "name": "tokenId",
          "type": "uint256"
        }
      ],
      "name": "approve",
      "outputs": [],
      "stateMutability": "nonpayable",
      "type": "function"
    },
    {
      "inputs": [],
      "name": "artist",
      "outputs": [
        {
          "internalType": "address",
          "name": "",
          "type": "address"
        }
      ],
      "stateMutability": "view",
      "type": "function",
      "constant": true
    },
    {
      "inputs": [
        {
          "internalType": "address",
          "name": "owner",
          "type": "address"
        }
      ],
      "name": "balanceOf",
      "outputs": [
        {
          "internalType": "uint256",
          "name": "",
          "type": "uint256"
        }
      ],
      "stateMutability": "view",
      "type": "function",
      "constant": true
    },
    {
      "inputs": [],
      "name": "cost",
      "outputs": [
        {
          "internalType": "uint256",
          "name": "",
          "type": "uint256"
        }
      ],
      "stateMutability": "view",
      "type": "function",
      "constant": true
    },
    {
      "inputs": [
        {
          "internalType": "uint256",
          "name": "tokenId",
          "type": "uint256"
        }
      ],
      "name": "getApproved",
      "outputs": [
        {
          "internalType": "address",
          "name": "",
          "type": "address"
        }
      ],
      "stateMutability": "view",
      "type": "function",
      "constant": true
    },
    {
      "inputs": [
        {
          "internalType": "uint256",
          "name": "",
          "type": "uint256"
        }
      ],
      "name": "holderOf",
      "outputs": [
        {
          "internalType": "address",
          "name": "",
          "type": "address"
        }
      ],
      "stateMutability": "view",
      "type": "function",
      "constant": true
    },
    {
      "inputs": [
        {
          "internalType": "address",
          "name": "owner",
          "type": "address"
        },
        {
          "internalType": "address",
          "name": "operator",
          "type": "address"
        }
      ],
      "name": "isApprovedForAll",
      "outputs": [
        {
          "internalType": "bool",
          "name": "",
          "type": "bool"
        }
      ],
      "stateMutability": "view",
      "type": "function",
      "constant": true
    },
    {
      "inputs": [],
      "name": "name",
      "outputs": [
        {
          "internalType": "string",
          "name": "",
          "type": "string"
        }
      ],
      "stateMutability": "view",
      "type": "function",
      "constant": true
    },
    {
      "inputs": [],
      "name": "owner",
      "outputs": [
        {
          "internalType": "address",
          "name": "",
          "type": "address"
        }
      ],
      "stateMutability": "view",
      "type": "function",
      "constant": true
    },
    {
      "inputs": [
        {
          "internalType": "uint256",
          "name": "tokenId",
          "type": "uint256"
        }
      ],
      "name": "ownerOf",
      "outputs": [
        {
          "internalType": "address",
          "name": "",
          "type": "address"
        }
      ],
      "stateMutability": "view",
      "type": "function",
      "constant": true
    },
    {
      "inputs": [],
      "name": "renounceOwnership",
      "outputs": [],
      "stateMutability": "nonpayable",
      "type": "function"
    },
    {
      "inputs": [],
      "name": "royalityFee",
      "outputs": [
        {
          "internalType": "uint256",
          "name": "",
          "type": "uint256"
        }
      ],
      "stateMutability": "view",
      "type": "function",
      "constant": true
    },
    {
      "inputs": [
        {
          "internalType": "address",
          "name": "from",
          "type": "address"
        },
        {
          "internalType": "address",
          "name": "to",
          "type": "address"
        },
        {
          "internalType": "uint256",
          "name": "tokenId",
          "type": "uint256"
        }
      ],
      "name": "safeTransferFrom",
      "outputs": [],
      "stateMutability": "nonpayable",
      "type": "function"
    },
    {
      "inputs": [
        {
          "internalType": "address",
          "name": "from",
          "type": "address"
        },
        {
          "internalType": "address",
          "name": "to",
          "type": "address"
        },
        {
          "internalType": "uint256",
          "name": "tokenId",
          "type": "uint256"
        },
        {
          "internalType": "bytes",
          "name": "data",
          "type": "bytes"
        }
      ],
      "name": "safeTransferFrom",
      "outputs": [],
      "stateMutability": "nonpayable",
      "type": "function"
    },
    {
      "inputs": [
        {
          "internalType": "address",
          "name": "operator",
          "type": "address"
        },
        {
          "internalType": "bool",
          "name": "approved",
          "type": "bool"
        }
      ],
      "name": "setApprovalForAll",
      "outputs": [],
      "stateMutability": "nonpayable",
      "type": "function"
    },
    {
      "inputs": [],
      "name": "supply",
      "outputs": [
        {
          "internalType": "uint256",
          "name": "",
          "type": "uint256"
        }
      ],
      "stateMutability": "view",
      "type": "function",
      "constant": true
    },
    {
      "inputs": [
        {
          "internalType": "bytes4",
          "name": "interfaceId",
          "type": "bytes4"
        }
      ],
      "name": "supportsInterface",
      "outputs": [
        {
          "internalType": "bool",
          "name": "",
          "type": "bool"
        }
      ],
      "stateMutability": "view",
      "type": "function",
      "constant": true
    },
    {
      "inputs": [],
      "name": "symbol",
      "outputs": [
        {
          "internalType": "string",
          "name": "",
          "type": "string"
        }
      ],
      "stateMutability": "view",
      "type": "function",
      "constant": true
    },
    {
      "inputs": [
        {
          "internalType": "uint256",
          "name": "index",
          "type": "uint256"
        }
      ],
      "name": "tokenByIndex",
      "outputs": [
        {
          "internalType": "uint256",
          "name": "",
          "type": "uint256"
        }
      ],
      "stateMutability": "view",
      "type": "function",
      "constant": true
    },
    {
      "inputs": [
        {
          "internalType": "address",
          "name": "owner",
          "type": "address"
        },
        {
          "internalType": "uint256",
          "name": "index",
          "type": "uint256"
        }
      ],
      "name": "tokenOfOwnerByIndex",
      "outputs": [
        {
          "internalType": "uint256",
          "name": "",
          "type": "uint256"
        }
      ],
      "stateMutability": "view",
      "type": "function",
      "constant": true
    },
    {
      "inputs": [
        {
          "internalType": "uint256",
          "name": "tokenId",
          "type": "uint256"
        }
      ],
      "name": "tokenURI",
      "outputs": [
        {
          "internalType": "string",
          "name": "",
          "type": "string"
        }
      ],
      "stateMutability": "view",
      "type": "function",
      "constant": true
    },
    {
      "inputs": [],
      "name": "totalSupply",
      "outputs": [
        {
          "internalType": "uint256",
          "name": "",
          "type": "uint256"
        }
      ],
      "stateMutability": "view",
      "type": "function",
      "constant": true
    },
    {
      "inputs": [],
      "name": "totalTx",
      "outputs": [
        {
          "internalType": "uint256",
          "name": "",
          "type": "uint256"
        }
      ],
      "stateMutability": "view",
      "type": "function",
      "constant": true
    },
    {
      "inputs": [
        {
          "internalType": "address",
          "name": "from",
          "type": "address"
        },
        {
          "internalType": "address",
          "name": "to",
          "type": "address"
        },
        {
          "internalType": "uint256",
          "name": "tokenId",
          "type": "uint256"
        }
      ],
      "name": "transferFrom",
      "outputs": [],
      "stateMutability": "nonpayable",
      "type": "function"
    },
    {
      "inputs": [
        {
          "internalType": "address",
          "name": "newOwner",
          "type": "address"
        }
      ],
      "name": "transferOwnership",
      "outputs": [],
      "stateMutability": "nonpayable",
      "type": "function"
    },
    {
      "inputs": [
        {
          "internalType": "string",
          "name": "title",
          "type": "string"
        },
        {
          "internalType": "string",
          "name": "description",
          "type": "string"
        },
        {
          "internalType": "string",
          "name": "metadataURI",
          "type": "string"
        },
        {
          "internalType": "uint256",
          "name": "salesPrice",
          "type": "uint256"
        }
      ],
      "name": "payToMint",
      "outputs": [],
      "stateMutability": "payable",
      "type": "function",
      "payable": true
    },
    {
      "inputs": [
        {
          "internalType": "uint256",
          "name": "id",
          "type": "uint256"
        }
      ],
      "name": "payToBuy",
      "outputs": [],
      "stateMutability": "payable",
      "type": "function",
      "payable": true
    },
    {
      "inputs": [
        {
          "internalType": "uint256",
          "name": "id",
          "type": "uint256"
        },
        {
          "internalType": "uint256",
          "name": "newPrice",
          "type": "uint256"
        }
      ],
      "name": "changePrice",
      "outputs": [
        {
          "internalType": "bool",
          "name": "",
          "type": "bool"
        }
      ],
      "stateMutability": "nonpayable",
      "type": "function"
    },
    {
      "inputs": [
        {
          "internalType": "uint256",
          "name": "id",
          "type": "uint256"
        },
        {
          "internalType": "bool",
          "name": "isBuyable",
          "type": "bool"
        }
      ],
      "name": "changePrivacy",
      "outputs": [
        {
          "internalType": "bool",
          "name": "",
          "type": "bool"
        }
      ],
      "stateMutability": "nonpayable",
      "type": "function"
    },
    {
      "inputs": [],
      "name": "getAllNFTs",
      "outputs": [
        {
          "components": [
            {
              "internalType": "uint256",
              "name": "id",
              "type": "uint256"
            },
            {
              "internalType": "address",
              "name": "owner",
              "type": "address"
            },
            {
              "internalType": "uint256",
              "name": "cost",
              "type": "uint256"
            },
            {
              "internalType": "string",
              "name": "title",
              "type": "string"
            },
            {
              "internalType": "string",
              "name": "description",
              "type": "string"
            },
            {
              "internalType": "string",
              "name": "metadataURI",
              "type": "string"
            },
            {
              "internalType": "uint256",
              "name": "timestamp",
              "type": "uint256"
            },
            {
              "internalType": "bool",
              "name": "isBuyable",
              "type": "bool"
            }
          ],
          "internalType": "struct WineNFT.TransactionStruct[]",
          "name": "",
          "type": "tuple[]"
        }
      ],
      "stateMutability": "view",
      "type": "function",
      "constant": true
    },
    {
      "inputs": [
        {
          "internalType": "uint256",
          "name": "id",
          "type": "uint256"
        }
      ],
      "name": "getNFT",
      "outputs": [
        {
          "components": [
            {
              "internalType": "uint256",
              "name": "id",
              "type": "uint256"
            },
            {
              "internalType": "address",
              "name": "owner",
              "type": "address"
            },
            {
              "internalType": "uint256",
              "name": "cost",
              "type": "uint256"
            },
            {
              "internalType": "string",
              "name": "title",
              "type": "string"
            },
            {
              "internalType": "string",
              "name": "description",
              "type": "string"
            },
            {
              "internalType": "string",
              "name": "metadataURI",
              "type": "string"
            },
            {
              "internalType": "uint256",
              "name": "timestamp",
              "type": "uint256"
            },
            {
              "internalType": "bool",
              "name": "isBuyable",
              "type": "bool"
            }
          ],
          "internalType": "struct WineNFT.TransactionStruct",
          "name": "",
          "type": "tuple"
        }
      ],
      "stateMutability": "view",
      "type": "function",
      "constant": true
    },
    {
      "inputs": [],
      "name": "getAllTransactions",
      "outputs": [
        {
          "components": [
            {
              "internalType": "uint256",
              "name": "id",
              "type": "uint256"
            },
            {
              "internalType": "address",
              "name": "owner",
              "type": "address"
            },
            {
              "internalType": "uint256",
              "name": "cost",
              "type": "uint256"
            },
            {
              "internalType": "string",
              "name": "title",
              "type": "string"
            },
            {
              "internalType": "string",
              "name": "description",
              "type": "string"
            },
            {
              "internalType": "string",
              "name": "metadataURI",
              "type": "string"
            },
            {
              "internalType": "uint256",
              "name": "timestamp",
              "type": "uint256"
            },
            {
              "internalType": "bool",
              "name": "isBuyable",
              "type": "bool"
            }
          ],
          "internalType": "struct WineNFT.TransactionStruct[]",
          "name": "",
          "type": "tuple[]"
        }
      ],
      "stateMutability": "view",
      "type": "function",
      "constant": true
    }
  ],
  "bytecode": "0x60806040526000600f556000601055655af3107a40006011553480156200002557600080fd5b5060405162005ffe38038062005ffe83398181016040528101906200004b9190620003e6565b838381600090816200005e9190620006d7565b508060019081620000709190620006d7565b5050506200009362000087620000e560201b60201c565b620000ed60201b60201c565b81600e8190555080600d60006101000a81548173ffffffffffffffffffffffffffffffffffffffff021916908373ffffffffffffffffffffffffffffffffffffffff16021790555050505050620007be565b600033905090565b6000600a60009054906101000a900473ffffffffffffffffffffffffffffffffffffffff16905081600a60006101000a81548173ffffffffffffffffffffffffffffffffffffffff021916908373ffffffffffffffffffffffffffffffffffffffff1602179055508173ffffffffffffffffffffffffffffffffffffffff168173ffffffffffffffffffffffffffffffffffffffff167f8be0079c531659141344cd1fd0a4f28419497f9722a3daafe3b4186f6b6457e060405160405180910390a35050565b6000604051905090565b600080fd5b600080fd5b600080fd5b600080fd5b6000601f19601f8301169050919050565b7f4e487b7100000000000000000000000000000000000000000000000000000000600052604160045260246000fd5b6200021c82620001d1565b810181811067ffffffffffffffff821117156200023e576200023d620001e2565b5b80604052505050565b600062000253620001b3565b905062000261828262000211565b919050565b600067ffffffffffffffff821115620002845762000283620001e2565b5b6200028f82620001d1565b9050602081019050919050565b60005b83811015620002bc5780820151818401526020810190506200029f565b60008484015250505050565b6000620002df620002d98462000266565b62000247565b905082815260208101848484011115620002fe57620002fd620001cc565b5b6200030b8482856200029c565b509392505050565b600082601f8301126200032b576200032a620001c7565b5b81516200033d848260208601620002c8565b91505092915050565b6000819050919050565b6200035b8162000346565b81146200036757600080fd5b50565b6000815190506200037b8162000350565b92915050565b600073ffffffffffffffffffffffffffffffffffffffff82169050919050565b6000620003ae8262000381565b9050919050565b620003c081620003a1565b8114620003cc57600080fd5b50565b600081519050620003e081620003b5565b92915050565b60008060008060808587031215620004035762000402620001bd565b5b600085015167ffffffffffffffff811115620004245762000423620001c2565b5b620004328782880162000313565b945050602085015167ffffffffffffffff811115620004565762000455620001c2565b5b620004648782880162000313565b935050604062000477878288016200036a565b92505060606200048a87828801620003cf565b91505092959194509250565b600081519050919050565b7f4e487b7100000000000000000000000000000000000000000000000000000000600052602260045260246000fd5b60006002820490506001821680620004e957607f821691505b602082108103620004ff57620004fe620004a1565b5b50919050565b60008190508160005260206000209050919050565b60006020601f8301049050919050565b600082821b905092915050565b600060088302620005697fffffffffffffffffffffffffffffffffffffffffffffffffffffffffffffffff826200052a565b6200057586836200052a565b95508019841693508086168417925050509392505050565b6000819050919050565b6000620005b8620005b2620005ac8462000346565b6200058d565b62000346565b9050919050565b6000819050919050565b620005d48362000597565b620005ec620005e382620005bf565b84845462000537565b825550505050565b600090565b62000603620005f4565b62000610818484620005c9565b505050565b5b8181101562000638576200062c600082620005f9565b60018101905062000616565b5050565b601f8211156200068757620006518162000505565b6200065c846200051a565b810160208510156200066c578190505b620006846200067b856200051a565b83018262000615565b50505b505050565b600082821c905092915050565b6000620006ac600019846008026200068c565b1980831691505092915050565b6000620006c7838362000699565b9150826002028217905092915050565b620006e28262000496565b67ffffffffffffffff811115620006fe57620006fd620001e2565b5b6200070a8254620004d0565b620007178282856200063c565b600060209050601f8311600181146200074f57600084156200073a578287015190505b620007468582620006b9565b865550620007b6565b601f1984166200075f8662000505565b60005b82811015620007895784890151825560018201915060208501945060208101905062000762565b86831015620007a95784890151620007a5601f89168262000699565b8355505b6001600288020188555050505b505050505050565b61583080620007ce6000396000f3fe6080604052600436106101e25760003560e01c80636352211e11610102578063a22cb46511610095578063dbacc23711610064578063dbacc23714610713578063e0391b0914610750578063e985e9c51461077b578063f2fde38b146107b8576101e2565b8063a22cb46514610647578063b3de019c14610670578063b88d4fde146106ad578063c87b56dd146106d6576101e2565b8063799c0c1e116100d1578063799c0c1e146105b95780638da5cb5b146105d557806395d89b41146106005780639ba4b0171461062b576101e2565b80636352211e146104fd57806370a082311461053a578063715018a6146105775780637220cf391461058e576101e2565b806323b872dd1161017a57806342842e0e1161014957806342842e0e1461042f57806343bc1612146104585780634f6ccce714610483578063576f7ea7146104c0576101e2565b806323b872dd1461037357806327506f531461039c5780632f745c59146103c7578063326bb4ad14610404576101e2565b8063081812fc116101b6578063081812fc146102b7578063095ea7b3146102f457806313faede61461031d57806318160ddd14610348576101e2565b8062056162146101e757806301ffc9a714610224578063047fc9aa1461026157806306fdde031461028c575b600080fd5b3480156101f357600080fd5b5061020e60048036038101906102099190613b8a565b6107e1565b60405161021b9190613bd9565b60405180910390f35b34801561023057600080fd5b5061024b60048036038101906102469190613c4c565b610884565b6040516102589190613bd9565b60405180910390f35b34801561026d57600080fd5b506102766108fe565b6040516102839190613c88565b60405180910390f35b34801561029857600080fd5b506102a1610904565b6040516102ae9190613d33565b60405180910390f35b3480156102c357600080fd5b506102de60048036038101906102d99190613d55565b610996565b6040516102eb9190613dc3565b60405180910390f35b34801561030057600080fd5b5061031b60048036038101906103169190613e0a565b6109dc565b005b34801561032957600080fd5b50610332610af3565b60405161033f9190613c88565b60405180910390f35b34801561035457600080fd5b5061035d610af9565b60405161036a9190613c88565b60405180910390f35b34801561037f57600080fd5b5061039a60048036038101906103959190613e4a565b610b06565b005b3480156103a857600080fd5b506103b1610b66565b6040516103be9190614094565b60405180910390f35b3480156103d357600080fd5b506103ee60048036038101906103e99190613e0a565b610e0b565b6040516103fb9190613c88565b60405180910390f35b34801561041057600080fd5b50610419610eb0565b6040516104269190613c88565b60405180910390f35b34801561043b57600080fd5b5061045660048036038101906104519190613e4a565b610eb6565b005b34801561046457600080fd5b5061046d610ed6565b60405161047a9190613dc3565b60405180910390f35b34801561048f57600080fd5b506104aa60048036038101906104a59190613d55565b610efc565b6040516104b79190613c88565b60405180910390f35b3480156104cc57600080fd5b506104e760048036038101906104e29190613d55565b610f6d565b6040516104f49190614174565b60405180910390f35b34801561050957600080fd5b50610524600480360381019061051f9190613d55565b6111fb565b6040516105319190613dc3565b60405180910390f35b34801561054657600080fd5b50610561600480360381019061055c9190614196565b611281565b60405161056e9190613c88565b60405180910390f35b34801561058357600080fd5b5061058c611338565b005b34801561059a57600080fd5b506105a361134c565b6040516105b09190613c88565b60405180910390f35b6105d360048036038101906105ce91906142f8565b611352565b005b3480156105e157600080fd5b506105ea611739565b6040516105f79190613dc3565b60405180910390f35b34801561060c57600080fd5b50610615611763565b6040516106229190613d33565b60405180910390f35b61064560048036038101906106409190613d55565b6117f5565b005b34801561065357600080fd5b5061066e600480360381019061066991906143b3565b611ea6565b005b34801561067c57600080fd5b50610697600480360381019061069291906143f3565b611ebc565b6040516106a49190613bd9565b60405180910390f35b3480156106b957600080fd5b506106d460048036038101906106cf91906144d4565b611fff565b005b3480156106e257600080fd5b506106fd60048036038101906106f89190613d55565b612061565b60405161070a9190613d33565b60405180910390f35b34801561071f57600080fd5b5061073a60048036038101906107359190613d55565b6120c9565b6040516107479190613dc3565b60405180910390f35b34801561075c57600080fd5b506107656120fc565b6040516107729190614094565b60405180910390f35b34801561078757600080fd5b506107a2600480360381019061079d9190614557565b6123a1565b6040516107af9190613bd9565b60405180910390f35b3480156107c457600080fd5b506107df60048036038101906107da9190614196565b612435565b005b600060136001846107f291906145c6565b81548110610803576108026145fa565b5b906000526020600020906008020160070160009054906101000a900460ff1615158215150361083157600080fd5b81601360018561084191906145c6565b81548110610852576108516145fa565b5b906000526020600020906008020160070160006101000a81548160ff0219169083151502179055506001905092915050565b60007f780e9d63000000000000000000000000000000000000000000000000000000007bffffffffffffffffffffffffffffffffffffffffffffffffffffffff1916827bffffffffffffffffffffffffffffffffffffffffffffffffffffffff191614806108f757506108f6826124b8565b5b9050919050565b600f5481565b60606000805461091390614658565b80601f016020809104026020016040519081016040528092919081815260200182805461093f90614658565b801561098c5780601f106109615761010080835404028352916020019161098c565b820191906000526020600020905b81548152906001019060200180831161096f57829003601f168201915b5050505050905090565b60006109a18261259a565b6004600083815260200190815260200160002060009054906101000a900473ffffffffffffffffffffffffffffffffffffffff169050919050565b60006109e7826111fb565b90508073ffffffffffffffffffffffffffffffffffffffff168373ffffffffffffffffffffffffffffffffffffffff1603610a57576040517f08c379a0000000000000000000000000000000000000000000000000000000008152600401610a4e906146fb565b60405180910390fd5b8073ffffffffffffffffffffffffffffffffffffffff16610a766125e5565b73ffffffffffffffffffffffffffffffffffffffff161480610aa55750610aa481610a9f6125e5565b6123a1565b5b610ae4576040517f08c379a0000000000000000000000000000000000000000000000000000000008152600401610adb9061478d565b60405180910390fd5b610aee83836125ed565b505050565b60115481565b6000600880549050905090565b610b17610b116125e5565b826126a6565b610b56576040517f08c379a0000000000000000000000000000000000000000000000000000000008152600401610b4d9061481f565b60405180910390fd5b610b6183838361273b565b505050565b60606012805480602002602001604051908101604052809291908181526020016000905b82821015610e02578382906000526020600020906008020160405180610100016040529081600082015481526020016001820160009054906101000a900473ffffffffffffffffffffffffffffffffffffffff1673ffffffffffffffffffffffffffffffffffffffff1673ffffffffffffffffffffffffffffffffffffffff16815260200160028201548152602001600382018054610c2890614658565b80601f0160208091040260200160405190810160405280929190818152602001828054610c5490614658565b8015610ca15780601f10610c7657610100808354040283529160200191610ca1565b820191906000526020600020905b815481529060010190602001808311610c8457829003601f168201915b50505050508152602001600482018054610cba90614658565b80601f0160208091040260200160405190810160405280929190818152602001828054610ce690614658565b8015610d335780601f10610d0857610100808354040283529160200191610d33565b820191906000526020600020905b815481529060010190602001808311610d1657829003601f168201915b50505050508152602001600582018054610d4c90614658565b80601f0160208091040260200160405190810160405280929190818152602001828054610d7890614658565b8015610dc55780601f10610d9a57610100808354040283529160200191610dc5565b820191906000526020600020905b815481529060010190602001808311610da857829003601f168201915b50505050508152602001600682015481526020016007820160009054906101000a900460ff16151515158152505081526020019060010190610b8a565b50505050905090565b6000610e1683611281565b8210610e57576040517f08c379a0000000000000000000000000000000000000000000000000000000008152600401610e4e906148b1565b60405180910390fd5b600660008473ffffffffffffffffffffffffffffffffffffffff1673ffffffffffffffffffffffffffffffffffffffff168152602001908152602001600020600083815260200190815260200160002054905092915050565b600e5481565b610ed183838360405180602001604052806000815250611fff565b505050565b600d60009054906101000a900473ffffffffffffffffffffffffffffffffffffffff1681565b6000610f06610af9565b8210610f47576040517f08c379a0000000000000000000000000000000000000000000000000000000008152600401610f3e90614943565b60405180910390fd5b60088281548110610f5b57610f5a6145fa565b5b90600052602060002001549050919050565b610f75613aab565b6013600183610f8491906145c6565b81548110610f9557610f946145fa565b5b906000526020600020906008020160405180610100016040529081600082015481526020016001820160009054906101000a900473ffffffffffffffffffffffffffffffffffffffff1673ffffffffffffffffffffffffffffffffffffffff1673ffffffffffffffffffffffffffffffffffffffff1681526020016002820154815260200160038201805461102990614658565b80601f016020809104026020016040519081016040528092919081815260200182805461105590614658565b80156110a25780601f10611077576101008083540402835291602001916110a2565b820191906000526020600020905b81548152906001019060200180831161108557829003601f168201915b505050505081526020016004820180546110bb90614658565b80601f01602080910402602001604051908101604052809291908181526020018280546110e790614658565b80156111345780601f1061110957610100808354040283529160200191611134565b820191906000526020600020905b81548152906001019060200180831161111757829003601f168201915b5050505050815260200160058201805461114d90614658565b80601f016020809104026020016040519081016040528092919081815260200182805461117990614658565b80156111c65780601f1061119b576101008083540402835291602001916111c6565b820191906000526020600020905b8154815290600101906020018083116111a957829003601f168201915b50505050508152602001600682015481526020016007820160009054906101000a900460ff1615151515815250509050919050565b60008061120783612a34565b9050600073ffffffffffffffffffffffffffffffffffffffff168173ffffffffffffffffffffffffffffffffffffffff1603611278576040517f08c379a000000000000000000000000000000000000000000000000000000000815260040161126f906149af565b60405180910390fd5b80915050919050565b60008073ffffffffffffffffffffffffffffffffffffffff168273ffffffffffffffffffffffffffffffffffffffff16036112f1576040517f08c379a00000000000000000000000000000000000000000000000000000000081526004016112e890614a41565b60405180910390fd5b600360008373ffffffffffffffffffffffffffffffffffffffff1673ffffffffffffffffffffffffffffffffffffffff168152602001908152602001600020549050919050565b611340612a71565b61134a6000612aef565b565b60105481565b601154341015611397576040517f08c379a000000000000000000000000000000000000000000000000000000000815260040161138e90614aad565b60405180910390fd5b6000600b836040516113a99190614b09565b908152602001604051809103902060009054906101000a900460ff1660ff1614611408576040517f08c379a00000000000000000000000000000000000000000000000000000000081526004016113ff90614b6c565b60405180910390fd5b611410611739565b73ffffffffffffffffffffffffffffffffffffffff163373ffffffffffffffffffffffffffffffffffffffff160361147d576040517f08c379a000000000000000000000000000000000000000000000000000000000815260040161147490614bd8565b60405180910390fd5b60006064600e543461148f9190614bf8565b6114999190614c69565b90506114c7600d60009054906101000a900473ffffffffffffffffffffffffffffffffffffffff1682612bb5565b6114e36114d2611739565b82346114de91906145c6565b612bb5565b600f60008154809291906114f690614c9a565b91905055506013604051806101000160405280600f5481526020013373ffffffffffffffffffffffffffffffffffffffff1681526020018481526020018781526020018681526020018581526020014281526020016001151581525090806001815401808255809150506001900390600052602060002090600802016000909190919091506000820151816000015560208201518160010160006101000a81548173ffffffffffffffffffffffffffffffffffffffff021916908373ffffffffffffffffffffffffffffffffffffffff1602179055506040820151816002015560608201518160030190816115eb9190614e8e565b5060808201518160040190816116019190614e8e565b5060a08201518160050190816116179190614e8e565b5060c0820151816006015560e08201518160070160006101000a81548160ff02191690831515021790555050503373ffffffffffffffffffffffffffffffffffffffff167fb9508407a6eccb191d8da3286f4173697cf95604e9ea192fe5ab7c862b5221f6600f543486426040516116929493929190614f60565b60405180910390a26116a633600f54612c30565b6001600b846040516116b89190614b09565b908152602001604051809103902060006101000a81548160ff021916908360ff16021790555033600c6000600f54815260200190815260200160002060006101000a81548173ffffffffffffffffffffffffffffffffffffffff021916908373ffffffffffffffffffffffffffffffffffffffff1602179055505050505050565b6000600a60009054906101000a900473ffffffffffffffffffffffffffffffffffffffff16905090565b60606001805461177290614658565b80601f016020809104026020016040519081016040528092919081815260200182805461179e90614658565b80156117eb5780601f106117c0576101008083540402835291602001916117eb565b820191906000526020600020905b8154815290600101906020018083116117ce57829003601f168201915b5050505050905090565b601360018261180491906145c6565b81548110611815576118146145fa565b5b906000526020600020906008020160020154341015611869576040517f08c379a000000000000000000000000000000000000000000000000000000000815260040161186090614ff8565b60405180910390fd5b601360018261187891906145c6565b81548110611889576118886145fa565b5b906000526020600020906008020160010160009054906101000a900473ffffffffffffffffffffffffffffffffffffffff1673ffffffffffffffffffffffffffffffffffffffff163373ffffffffffffffffffffffffffffffffffffffff1603611928576040517f08c379a000000000000000000000000000000000000000000000000000000000815260040161191f90615064565b60405180910390fd5b601360018261193791906145c6565b81548110611948576119476145fa565b5b906000526020600020906008020160070160009054906101000a900460ff1661197057600080fd5b60006064600e54346119829190614bf8565b61198c9190614c69565b90506119ba600d60009054906101000a900473ffffffffffffffffffffffffffffffffffffffff1682612bb5565b611a2060136001846119cc91906145c6565b815481106119dd576119dc6145fa565b5b906000526020600020906008020160010160009054906101000a900473ffffffffffffffffffffffffffffffffffffffff168234611a1b91906145c6565b612bb5565b60106000815480929190611a3390614c9a565b9190505550601260405180610100016040528060105481526020013373ffffffffffffffffffffffffffffffffffffffff1681526020013481526020016013600186611a7f91906145c6565b81548110611a9057611a8f6145fa565b5b90600052602060002090600802016003018054611aac90614658565b80601f0160208091040260200160405190810160405280929190818152602001828054611ad890614658565b8015611b255780601f10611afa57610100808354040283529160200191611b25565b820191906000526020600020905b815481529060010190602001808311611b0857829003601f168201915b505050505081526020016013600186611b3e91906145c6565b81548110611b4f57611b4e6145fa565b5b90600052602060002090600802016004018054611b6b90614658565b80601f0160208091040260200160405190810160405280929190818152602001828054611b9790614658565b8015611be45780601f10611bb957610100808354040283529160200191611be4565b820191906000526020600020905b815481529060010190602001808311611bc757829003601f168201915b505050505081526020016013600186611bfd91906145c6565b81548110611c0e57611c0d6145fa565b5b90600052602060002090600802016005018054611c2a90614658565b80601f0160208091040260200160405190810160405280929190818152602001828054611c5690614658565b8015611ca35780601f10611c7857610100808354040283529160200191611ca3565b820191906000526020600020905b815481529060010190602001808311611c8657829003601f168201915b505050505081526020014281526020016000151581525090806001815401808255809150506001900390600052602060002090600802016000909190919091506000820151816000015560208201518160010160006101000a81548173ffffffffffffffffffffffffffffffffffffffff021916908373ffffffffffffffffffffffffffffffffffffffff160217905550604082015181600201556060820151816003019081611d539190614e8e565b506080820151816004019081611d699190614e8e565b5060a0820151816005019081611d7f9190614e8e565b5060c0820151816006015560e08201518160070160006101000a81548160ff02191690831515021790555050503373ffffffffffffffffffffffffffffffffffffffff167fb9508407a6eccb191d8da3286f4173697cf95604e9ea192fe5ab7c862b5221f6601054346013600187611df791906145c6565b81548110611e0857611e076145fa565b5b906000526020600020906008020160050142604051611e2a9493929190615108565b60405180910390a2336013600184611e4291906145c6565b81548110611e5357611e526145fa565b5b906000526020600020906008020160010160006101000a81548173ffffffffffffffffffffffffffffffffffffffff021916908373ffffffffffffffffffffffffffffffffffffffff1602179055505050565b611eb8611eb16125e5565b8383612c4e565b5050565b6000808211611f00576040517f08c379a0000000000000000000000000000000000000000000000000000000008152600401611ef7906151a0565b60405180910390fd5b6013600184611f0f91906145c6565b81548110611f2057611f1f6145fa565b5b906000526020600020906008020160010160009054906101000a900473ffffffffffffffffffffffffffffffffffffffff1673ffffffffffffffffffffffffffffffffffffffff163373ffffffffffffffffffffffffffffffffffffffff1614611fbf576040517f08c379a0000000000000000000000000000000000000000000000000000000008152600401611fb690615064565b60405180910390fd5b816013600185611fcf91906145c6565b81548110611fe057611fdf6145fa565b5b9060005260206000209060080201600201819055506001905092915050565b61201061200a6125e5565b836126a6565b61204f576040517f08c379a00000000000000000000000000000000000000000000000000000000081526004016120469061481f565b60405180910390fd5b61205b84848484612dba565b50505050565b606061206c8261259a565b6000612076612e16565b9050600081511161209657604051806020016040528060008152506120c1565b806120a084612e2d565b6040516020016120b19291906151c0565b6040516020818303038152906040525b915050919050565b600c6020528060005260406000206000915054906101000a900473ffffffffffffffffffffffffffffffffffffffff1681565b60606013805480602002602001604051908101604052809291908181526020016000905b82821015612398578382906000526020600020906008020160405180610100016040529081600082015481526020016001820160009054906101000a900473ffffffffffffffffffffffffffffffffffffffff1673ffffffffffffffffffffffffffffffffffffffff1673ffffffffffffffffffffffffffffffffffffffff168152602001600282015481526020016003820180546121be90614658565b80601f01602080910402602001604051908101604052809291908181526020018280546121ea90614658565b80156122375780601f1061220c57610100808354040283529160200191612237565b820191906000526020600020905b81548152906001019060200180831161221a57829003601f168201915b5050505050815260200160048201805461225090614658565b80601f016020809104026020016040519081016040528092919081815260200182805461227c90614658565b80156122c95780601f1061229e576101008083540402835291602001916122c9565b820191906000526020600020905b8154815290600101906020018083116122ac57829003601f168201915b505050505081526020016005820180546122e290614658565b80601f016020809104026020016040519081016040528092919081815260200182805461230e90614658565b801561235b5780601f106123305761010080835404028352916020019161235b565b820191906000526020600020905b81548152906001019060200180831161233e57829003601f168201915b50505050508152602001600682015481526020016007820160009054906101000a900460ff16151515158152505081526020019060010190612120565b50505050905090565b6000600560008473ffffffffffffffffffffffffffffffffffffffff1673ffffffffffffffffffffffffffffffffffffffff16815260200190815260200160002060008373ffffffffffffffffffffffffffffffffffffffff1673ffffffffffffffffffffffffffffffffffffffff16815260200190815260200160002060009054906101000a900460ff16905092915050565b61243d612a71565b600073ffffffffffffffffffffffffffffffffffffffff168173ffffffffffffffffffffffffffffffffffffffff16036124ac576040517f08c379a00000000000000000000000000000000000000000000000000000000081526004016124a390615256565b60405180910390fd5b6124b581612aef565b50565b60007f80ac58cd000000000000000000000000000000000000000000000000000000007bffffffffffffffffffffffffffffffffffffffffffffffffffffffff1916827bffffffffffffffffffffffffffffffffffffffffffffffffffffffff1916148061258357507f5b5e139f000000000000000000000000000000000000000000000000000000007bffffffffffffffffffffffffffffffffffffffffffffffffffffffff1916827bffffffffffffffffffffffffffffffffffffffffffffffffffffffff1916145b80612593575061259282612efb565b5b9050919050565b6125a381612f65565b6125e2576040517f08c379a00000000000000000000000000000000000000000000000000000000081526004016125d9906149af565b60405180910390fd5b50565b600033905090565b816004600083815260200190815260200160002060006101000a81548173ffffffffffffffffffffffffffffffffffffffff021916908373ffffffffffffffffffffffffffffffffffffffff160217905550808273ffffffffffffffffffffffffffffffffffffffff16612660836111fb565b73ffffffffffffffffffffffffffffffffffffffff167f8c5be1e5ebec7d5bd14f71427d1e84f3dd0314c0f7b2291e5b200ac8c7c3b92560405160405180910390a45050565b6000806126b2836111fb565b90508073ffffffffffffffffffffffffffffffffffffffff168473ffffffffffffffffffffffffffffffffffffffff1614806126f457506126f381856123a1565b5b8061273257508373ffffffffffffffffffffffffffffffffffffffff1661271a84610996565b73ffffffffffffffffffffffffffffffffffffffff16145b91505092915050565b8273ffffffffffffffffffffffffffffffffffffffff1661275b826111fb565b73ffffffffffffffffffffffffffffffffffffffff16146127b1576040517f08c379a00000000000000000000000000000000000000000000000000000000081526004016127a8906152e8565b60405180910390fd5b600073ffffffffffffffffffffffffffffffffffffffff168273ffffffffffffffffffffffffffffffffffffffff1603612820576040517f08c379a00000000000000000000000000000000000000000000000000000000081526004016128179061537a565b60405180910390fd5b61282d8383836001612fa6565b8273ffffffffffffffffffffffffffffffffffffffff1661284d826111fb565b73ffffffffffffffffffffffffffffffffffffffff16146128a3576040517f08c379a000000000000000000000000000000000000000000000000000000000815260040161289a906152e8565b60405180910390fd5b6004600082815260200190815260200160002060006101000a81549073ffffffffffffffffffffffffffffffffffffffff02191690556001600360008573ffffffffffffffffffffffffffffffffffffffff1673ffffffffffffffffffffffffffffffffffffffff168152602001908152602001600020600082825403925050819055506001600360008473ffffffffffffffffffffffffffffffffffffffff1673ffffffffffffffffffffffffffffffffffffffff16815260200190815260200160002060008282540192505081905550816002600083815260200190815260200160002060006101000a81548173ffffffffffffffffffffffffffffffffffffffff021916908373ffffffffffffffffffffffffffffffffffffffff160217905550808273ffffffffffffffffffffffffffffffffffffffff168473ffffffffffffffffffffffffffffffffffffffff167fddf252ad1be2c89b69c2b068fc378daa952ba7f163c4a11628f55a4df523b3ef60405160405180910390a4612a2f8383836001613104565b505050565b60006002600083815260200190815260200160002060009054906101000a900473ffffffffffffffffffffffffffffffffffffffff169050919050565b612a796125e5565b73ffffffffffffffffffffffffffffffffffffffff16612a97611739565b73ffffffffffffffffffffffffffffffffffffffff1614612aed576040517f08c379a0000000000000000000000000000000000000000000000000000000008152600401612ae4906153e6565b60405180910390fd5b565b6000600a60009054906101000a900473ffffffffffffffffffffffffffffffffffffffff16905081600a60006101000a81548173ffffffffffffffffffffffffffffffffffffffff021916908373ffffffffffffffffffffffffffffffffffffffff1602179055508173ffffffffffffffffffffffffffffffffffffffff168173ffffffffffffffffffffffffffffffffffffffff167f8be0079c531659141344cd1fd0a4f28419497f9722a3daafe3b4186f6b6457e060405160405180910390a35050565b60008273ffffffffffffffffffffffffffffffffffffffff1682604051612bdb90615437565b60006040518083038185875af1925050503d8060008114612c18576040519150601f19603f3d011682016040523d82523d6000602084013e612c1d565b606091505b5050905080612c2b57600080fd5b505050565b612c4a82826040518060200160405280600081525061310a565b5050565b8173ffffffffffffffffffffffffffffffffffffffff168373ffffffffffffffffffffffffffffffffffffffff1603612cbc576040517f08c379a0000000000000000000000000000000000000000000000000000000008152600401612cb390615498565b60405180910390fd5b80600560008573ffffffffffffffffffffffffffffffffffffffff1673ffffffffffffffffffffffffffffffffffffffff16815260200190815260200160002060008473ffffffffffffffffffffffffffffffffffffffff1673ffffffffffffffffffffffffffffffffffffffff16815260200190815260200160002060006101000a81548160ff0219169083151502179055508173ffffffffffffffffffffffffffffffffffffffff168373ffffffffffffffffffffffffffffffffffffffff167f17307eab39ab6107e8899845ad3d59bd9653f200f220920489ca2b5937696c3183604051612dad9190613bd9565b60405180910390a3505050565b612dc584848461273b565b612dd184848484613165565b612e10576040517f08c379a0000000000000000000000000000000000000000000000000000000008152600401612e079061552a565b60405180910390fd5b50505050565b606060405180602001604052806000815250905090565b606060006001612e3c846132ec565b01905060008167ffffffffffffffff811115612e5b57612e5a6141cd565b5b6040519080825280601f01601f191660200182016040528015612e8d5781602001600182028036833780820191505090505b509050600082602001820190505b600115612ef0578080600190039150507f3031323334353637383961626364656600000000000000000000000000000000600a86061a8153600a8581612ee457612ee3614c3a565b5b04945060008503612e9b575b819350505050919050565b60007f01ffc9a7000000000000000000000000000000000000000000000000000000007bffffffffffffffffffffffffffffffffffffffffffffffffffffffff1916827bffffffffffffffffffffffffffffffffffffffffffffffffffffffff1916149050919050565b60008073ffffffffffffffffffffffffffffffffffffffff16612f8783612a34565b73ffffffffffffffffffffffffffffffffffffffff1614159050919050565b612fb28484848461343f565b6001811115612ff6576040517f08c379a0000000000000000000000000000000000000000000000000000000008152600401612fed906155bc565b60405180910390fd5b6000829050600073ffffffffffffffffffffffffffffffffffffffff168573ffffffffffffffffffffffffffffffffffffffff160361303d5761303881613565565b61307c565b8373ffffffffffffffffffffffffffffffffffffffff168573ffffffffffffffffffffffffffffffffffffffff161461307b5761307a85826135ae565b5b5b600073ffffffffffffffffffffffffffffffffffffffff168473ffffffffffffffffffffffffffffffffffffffff16036130be576130b98161371b565b6130fd565b8473ffffffffffffffffffffffffffffffffffffffff168473ffffffffffffffffffffffffffffffffffffffff16146130fc576130fb84826137ec565b5b5b5050505050565b50505050565b613114838361386b565b6131216000848484613165565b613160576040517f08c379a00000000000000000000000000000000000000000000000000000000081526004016131579061552a565b60405180910390fd5b505050565b60006131868473ffffffffffffffffffffffffffffffffffffffff16613a88565b156132df578373ffffffffffffffffffffffffffffffffffffffff1663150b7a026131af6125e5565b8786866040518563ffffffff1660e01b81526004016131d19493929190615631565b6020604051808303816000875af192505050801561320d57506040513d601f19601f8201168201806040525081019061320a9190615692565b60015b61328f573d806000811461323d576040519150601f19603f3d011682016040523d82523d6000602084013e613242565b606091505b506000815103613287576040517f08c379a000000000000000000000000000000000000000000000000000000000815260040161327e9061552a565b60405180910390fd5b805181602001fd5b63150b7a0260e01b7bffffffffffffffffffffffffffffffffffffffffffffffffffffffff1916817bffffffffffffffffffffffffffffffffffffffffffffffffffffffff1916149150506132e4565b600190505b949350505050565b600080600090507a184f03e93ff9f4daa797ed6e38ed64bf6a1f010000000000000000831061334a577a184f03e93ff9f4daa797ed6e38ed64bf6a1f01000000000000000083816133405761333f614c3a565b5b0492506040810190505b6d04ee2d6d415b85acef81000000008310613387576d04ee2d6d415b85acef8100000000838161337d5761337c614c3a565b5b0492506020810190505b662386f26fc1000083106133b657662386f26fc1000083816133ac576133ab614c3a565b5b0492506010810190505b6305f5e10083106133df576305f5e10083816133d5576133d4614c3a565b5b0492506008810190505b61271083106134045761271083816133fa576133f9614c3a565b5b0492506004810190505b60648310613427576064838161341d5761341c614c3a565b5b0492506002810190505b600a8310613436576001810190505b80915050919050565b600181111561355f57600073ffffffffffffffffffffffffffffffffffffffff168473ffffffffffffffffffffffffffffffffffffffff16146134d35780600360008673ffffffffffffffffffffffffffffffffffffffff1673ffffffffffffffffffffffffffffffffffffffff16815260200190815260200160002060008282546134cb91906145c6565b925050819055505b600073ffffffffffffffffffffffffffffffffffffffff168373ffffffffffffffffffffffffffffffffffffffff161461355e5780600360008573ffffffffffffffffffffffffffffffffffffffff1673ffffffffffffffffffffffffffffffffffffffff168152602001908152602001600020600082825461355691906156bf565b925050819055505b5b50505050565b6008805490506009600083815260200190815260200160002081905550600881908060018154018082558091505060019003906000526020600020016000909190919091505550565b600060016135bb84611281565b6135c591906145c6565b90506000600760008481526020019081526020016000205490508181146136aa576000600660008673ffffffffffffffffffffffffffffffffffffffff1673ffffffffffffffffffffffffffffffffffffffff168152602001908152602001600020600084815260200190815260200160002054905080600660008773ffffffffffffffffffffffffffffffffffffffff1673ffffffffffffffffffffffffffffffffffffffff168152602001908152602001600020600084815260200190815260200160002081905550816007600083815260200190815260200160002081905550505b6007600084815260200190815260200160002060009055600660008573ffffffffffffffffffffffffffffffffffffffff1673ffffffffffffffffffffffffffffffffffffffff16815260200190815260200160002060008381526020019081526020016000206000905550505050565b6000600160088054905061372f91906145c6565b905060006009600084815260200190815260200160002054905060006008838154811061375f5761375e6145fa565b5b906000526020600020015490508060088381548110613781576137806145fa565b5b9060005260206000200181905550816009600083815260200190815260200160002081905550600960008581526020019081526020016000206000905560088054806137d0576137cf6156f3565b5b6001900381819060005260206000200160009055905550505050565b60006137f783611281565b905081600660008573ffffffffffffffffffffffffffffffffffffffff1673ffffffffffffffffffffffffffffffffffffffff168152602001908152602001600020600083815260200190815260200160002081905550806007600084815260200190815260200160002081905550505050565b600073ffffffffffffffffffffffffffffffffffffffff168273ffffffffffffffffffffffffffffffffffffffff16036138da576040517f08c379a00000000000000000000000000000000000000000000000000000000081526004016138d19061576e565b60405180910390fd5b6138e381612f65565b15613923576040517f08c379a000000000000000000000000000000000000000000000000000000000815260040161391a906157da565b60405180910390fd5b613931600083836001612fa6565b61393a81612f65565b1561397a576040517f08c379a0000000000000000000000000000000000000000000000000000000008152600401613971906157da565b60405180910390fd5b6001600360008473ffffffffffffffffffffffffffffffffffffffff1673ffffffffffffffffffffffffffffffffffffffff16815260200190815260200160002060008282540192505081905550816002600083815260200190815260200160002060006101000a81548173ffffffffffffffffffffffffffffffffffffffff021916908373ffffffffffffffffffffffffffffffffffffffff160217905550808273ffffffffffffffffffffffffffffffffffffffff16600073ffffffffffffffffffffffffffffffffffffffff167fddf252ad1be2c89b69c2b068fc378daa952ba7f163c4a11628f55a4df523b3ef60405160405180910390a4613a84600083836001613104565b5050565b6000808273ffffffffffffffffffffffffffffffffffffffff163b119050919050565b60405180610100016040528060008152602001600073ffffffffffffffffffffffffffffffffffffffff16815260200160008152602001606081526020016060815260200160608152602001600081526020016000151581525090565b6000604051905090565b600080fd5b600080fd5b6000819050919050565b613b2f81613b1c565b8114613b3a57600080fd5b50565b600081359050613b4c81613b26565b92915050565b60008115159050919050565b613b6781613b52565b8114613b7257600080fd5b50565b600081359050613b8481613b5e565b92915050565b60008060408385031215613ba157613ba0613b12565b5b6000613baf85828601613b3d565b9250506020613bc085828601613b75565b9150509250929050565b613bd381613b52565b82525050565b6000602082019050613bee6000830184613bca565b92915050565b60007fffffffff0000000000000000000000000000000000000000000000000000000082169050919050565b613c2981613bf4565b8114613c3457600080fd5b50565b600081359050613c4681613c20565b92915050565b600060208284031215613c6257613c61613b12565b5b6000613c7084828501613c37565b91505092915050565b613c8281613b1c565b82525050565b6000602082019050613c9d6000830184613c79565b92915050565b600081519050919050565b600082825260208201905092915050565b60005b83811015613cdd578082015181840152602081019050613cc2565b60008484015250505050565b6000601f19601f8301169050919050565b6000613d0582613ca3565b613d0f8185613cae565b9350613d1f818560208601613cbf565b613d2881613ce9565b840191505092915050565b60006020820190508181036000830152613d4d8184613cfa565b905092915050565b600060208284031215613d6b57613d6a613b12565b5b6000613d7984828501613b3d565b91505092915050565b600073ffffffffffffffffffffffffffffffffffffffff82169050919050565b6000613dad82613d82565b9050919050565b613dbd81613da2565b82525050565b6000602082019050613dd86000830184613db4565b92915050565b613de781613da2565b8114613df257600080fd5b50565b600081359050613e0481613dde565b92915050565b60008060408385031215613e2157613e20613b12565b5b6000613e2f85828601613df5565b9250506020613e4085828601613b3d565b9150509250929050565b600080600060608486031215613e6357613e62613b12565b5b6000613e7186828701613df5565b9350506020613e8286828701613df5565b9250506040613e9386828701613b3d565b9150509250925092565b600081519050919050565b600082825260208201905092915050565b6000819050602082019050919050565b613ed281613b1c565b82525050565b613ee181613da2565b82525050565b600082825260208201905092915050565b6000613f0382613ca3565b613f0d8185613ee7565b9350613f1d818560208601613cbf565b613f2681613ce9565b840191505092915050565b613f3a81613b52565b82525050565b600061010083016000830151613f596000860182613ec9565b506020830151613f6c6020860182613ed8565b506040830151613f7f6040860182613ec9565b5060608301518482036060860152613f978282613ef8565b91505060808301518482036080860152613fb18282613ef8565b91505060a083015184820360a0860152613fcb8282613ef8565b91505060c0830151613fe060c0860182613ec9565b5060e0830151613ff360e0860182613f31565b508091505092915050565b600061400a8383613f40565b905092915050565b6000602082019050919050565b600061402a82613e9d565b6140348185613ea8565b93508360208202850161404685613eb9565b8060005b8581101561408257848403895281516140638582613ffe565b945061406e83614012565b925060208a0199505060018101905061404a565b50829750879550505050505092915050565b600060208201905081810360008301526140ae818461401f565b905092915050565b6000610100830160008301516140cf6000860182613ec9565b5060208301516140e26020860182613ed8565b5060408301516140f56040860182613ec9565b506060830151848203606086015261410d8282613ef8565b915050608083015184820360808601526141278282613ef8565b91505060a083015184820360a08601526141418282613ef8565b91505060c083015161415660c0860182613ec9565b5060e083015161416960e0860182613f31565b508091505092915050565b6000602082019050818103600083015261418e81846140b6565b905092915050565b6000602082840312156141ac576141ab613b12565b5b60006141ba84828501613df5565b91505092915050565b600080fd5b600080fd5b7f4e487b7100000000000000000000000000000000000000000000000000000000600052604160045260246000fd5b61420582613ce9565b810181811067ffffffffffffffff82111715614224576142236141cd565b5b80604052505050565b6000614237613b08565b905061424382826141fc565b919050565b600067ffffffffffffffff821115614263576142626141cd565b5b61426c82613ce9565b9050602081019050919050565b82818337600083830152505050565b600061429b61429684614248565b61422d565b9050828152602081018484840111156142b7576142b66141c8565b5b6142c2848285614279565b509392505050565b600082601f8301126142df576142de6141c3565b5b81356142ef848260208601614288565b91505092915050565b6000806000806080858703121561431257614311613b12565b5b600085013567ffffffffffffffff8111156143305761432f613b17565b5b61433c878288016142ca565b945050602085013567ffffffffffffffff81111561435d5761435c613b17565b5b614369878288016142ca565b935050604085013567ffffffffffffffff81111561438a57614389613b17565b5b614396878288016142ca565b92505060606143a787828801613b3d565b91505092959194509250565b600080604083850312156143ca576143c9613b12565b5b60006143d885828601613df5565b92505060206143e985828601613b75565b9150509250929050565b6000806040838503121561440a57614409613b12565b5b600061441885828601613b3d565b925050602061442985828601613b3d565b9150509250929050565b600067ffffffffffffffff82111561444e5761444d6141cd565b5b61445782613ce9565b9050602081019050919050565b600061447761447284614433565b61422d565b905082815260208101848484011115614493576144926141c8565b5b61449e848285614279565b509392505050565b600082601f8301126144bb576144ba6141c3565b5b81356144cb848260208601614464565b91505092915050565b600080600080608085870312156144ee576144ed613b12565b5b60006144fc87828801613df5565b945050602061450d87828801613df5565b935050604061451e87828801613b3d565b925050606085013567ffffffffffffffff81111561453f5761453e613b17565b5b61454b878288016144a6565b91505092959194509250565b6000806040838503121561456e5761456d613b12565b5b600061457c85828601613df5565b925050602061458d85828601613df5565b9150509250929050565b7f4e487b7100000000000000000000000000000000000000000000000000000000600052601160045260246000fd5b60006145d182613b1c565b91506145dc83613b1c565b92508282039050818111156145f4576145f3614597565b5b92915050565b7f4e487b7100000000000000000000000000000000000000000000000000000000600052603260045260246000fd5b7f4e487b7100000000000000000000000000000000000000000000000000000000600052602260045260246000fd5b6000600282049050600182168061467057607f821691505b60208210810361468357614682614629565b5b50919050565b7f4552433732313a20617070726f76616c20746f2063757272656e74206f776e6560008201527f7200000000000000000000000000000000000000000000000000000000000000602082015250565b60006146e5602183613cae565b91506146f082614689565b604082019050919050565b60006020820190508181036000830152614714816146d8565b9050919050565b7f4552433732313a20617070726f76652063616c6c6572206973206e6f7420746f60008201527f6b656e206f776e6572206f7220617070726f76656420666f7220616c6c000000602082015250565b6000614777603d83613cae565b91506147828261471b565b604082019050919050565b600060208201905081810360008301526147a68161476a565b9050919050565b7f4552433732313a2063616c6c6572206973206e6f7420746f6b656e206f776e6560008201527f72206f7220617070726f76656400000000000000000000000000000000000000602082015250565b6000614809602d83613cae565b9150614814826147ad565b604082019050919050565b60006020820190508181036000830152614838816147fc565b9050919050565b7f455243373231456e756d657261626c653a206f776e657220696e646578206f7560008201527f74206f6620626f756e6473000000000000000000000000000000000000000000602082015250565b600061489b602b83613cae565b91506148a68261483f565b604082019050919050565b600060208201905081810360008301526148ca8161488e565b9050919050565b7f455243373231456e756d657261626c653a20676c6f62616c20696e646578206f60008201527f7574206f6620626f756e64730000000000000000000000000000000000000000602082015250565b600061492d602c83613cae565b9150614938826148d1565b604082019050919050565b6000602082019050818103600083015261495c81614920565b9050919050565b7f4552433732313a20696e76616c696420746f6b656e2049440000000000000000600082015250565b6000614999601883613cae565b91506149a482614963565b602082019050919050565b600060208201905081810360008301526149c88161498c565b9050919050565b7f4552433732313a2061646472657373207a65726f206973206e6f74206120766160008201527f6c6964206f776e65720000000000000000000000000000000000000000000000602082015250565b6000614a2b602983613cae565b9150614a36826149cf565b604082019050919050565b60006020820190508181036000830152614a5a81614a1e565b9050919050565b7f457468657220746f6f206c6f7720666f72206d696e74696e6721000000000000600082015250565b6000614a97601a83613cae565b9150614aa282614a61565b602082019050919050565b60006020820190508181036000830152614ac681614a8a565b9050919050565b600081905092915050565b6000614ae382613ca3565b614aed8185614acd565b9350614afd818560208601613cbf565b80840191505092915050565b6000614b158284614ad8565b915081905092915050565b7f54686973204e465420697320616c7265616479206d696e746564210000000000600082015250565b6000614b56601b83613cae565b9150614b6182614b20565b602082019050919050565b60006020820190508181036000830152614b8581614b49565b9050919050565b7f53616c6573206e6f7420616c6c6f776564210000000000000000000000000000600082015250565b6000614bc2601283613cae565b9150614bcd82614b8c565b602082019050919050565b60006020820190508181036000830152614bf181614bb5565b9050919050565b6000614c0382613b1c565b9150614c0e83613b1c565b9250828202614c1c81613b1c565b91508282048414831517614c3357614c32614597565b5b5092915050565b7f4e487b7100000000000000000000000000000000000000000000000000000000600052601260045260246000fd5b6000614c7482613b1c565b9150614c7f83613b1c565b925082614c8f57614c8e614c3a565b5b828204905092915050565b6000614ca582613b1c565b91507fffffffffffffffffffffffffffffffffffffffffffffffffffffffffffffffff8203614cd757614cd6614597565b5b600182019050919050565b60008190508160005260206000209050919050565b60006020601f8301049050919050565b600082821b905092915050565b600060088302614d447fffffffffffffffffffffffffffffffffffffffffffffffffffffffffffffffff82614d07565b614d4e8683614d07565b95508019841693508086168417925050509392505050565b6000819050919050565b6000614d8b614d86614d8184613b1c565b614d66565b613b1c565b9050919050565b6000819050919050565b614da583614d70565b614db9614db182614d92565b848454614d14565b825550505050565b600090565b614dce614dc1565b614dd9818484614d9c565b505050565b5b81811015614dfd57614df2600082614dc6565b600181019050614ddf565b5050565b601f821115614e4257614e1381614ce2565b614e1c84614cf7565b81016020851015614e2b578190505b614e3f614e3785614cf7565b830182614dde565b50505b505050565b600082821c905092915050565b6000614e6560001984600802614e47565b1980831691505092915050565b6000614e7e8383614e54565b9150826002028217905092915050565b614e9782613ca3565b67ffffffffffffffff811115614eb057614eaf6141cd565b5b614eba8254614658565b614ec5828285614e01565b600060209050601f831160018114614ef85760008415614ee6578287015190505b614ef08582614e72565b865550614f58565b601f198416614f0686614ce2565b60005b82811015614f2e57848901518255600182019150602085019450602081019050614f09565b86831015614f4b5784890151614f47601f891682614e54565b8355505b6001600288020188555050505b505050505050565b6000608082019050614f756000830187613c79565b614f826020830186613c79565b8181036040830152614f948185613cfa565b9050614fa36060830184613c79565b95945050505050565b7f457468657220746f6f206c6f7720666f72207075726368617365210000000000600082015250565b6000614fe2601b83613cae565b9150614fed82614fac565b602082019050919050565b6000602082019050818103600083015261501181614fd5565b9050919050565b7f4f7065726174696f6e204e6f7420416c6c6f7765642100000000000000000000600082015250565b600061504e601683613cae565b915061505982615018565b602082019050919050565b6000602082019050818103600083015261507d81615041565b9050919050565b6000815461509181614658565b61509b8186613cae565b945060018216600081146150b657600181146150cc576150ff565b60ff1983168652811515602002860193506150ff565b6150d585614ce2565b60005b838110156150f7578154818901526001820191506020810190506150d8565b808801955050505b50505092915050565b600060808201905061511d6000830187613c79565b61512a6020830186613c79565b818103604083015261513c8185615084565b905061514b6060830184613c79565b95945050505050565b7f457468657220746f6f206c6f7721000000000000000000000000000000000000600082015250565b600061518a600e83613cae565b915061519582615154565b602082019050919050565b600060208201905081810360008301526151b98161517d565b9050919050565b60006151cc8285614ad8565b91506151d88284614ad8565b91508190509392505050565b7f4f776e61626c653a206e6577206f776e657220697320746865207a65726f206160008201527f6464726573730000000000000000000000000000000000000000000000000000602082015250565b6000615240602683613cae565b915061524b826151e4565b604082019050919050565b6000602082019050818103600083015261526f81615233565b9050919050565b7f4552433732313a207472616e736665722066726f6d20696e636f72726563742060008201527f6f776e6572000000000000000000000000000000000000000000000000000000602082015250565b60006152d2602583613cae565b91506152dd82615276565b604082019050919050565b60006020820190508181036000830152615301816152c5565b9050919050565b7f4552433732313a207472616e7366657220746f20746865207a65726f2061646460008201527f7265737300000000000000000000000000000000000000000000000000000000602082015250565b6000615364602483613cae565b915061536f82615308565b604082019050919050565b6000602082019050818103600083015261539381615357565b9050919050565b7f4f776e61626c653a2063616c6c6572206973206e6f7420746865206f776e6572600082015250565b60006153d0602083613cae565b91506153db8261539a565b602082019050919050565b600060208201905081810360008301526153ff816153c3565b9050919050565b600081905092915050565b50565b6000615421600083615406565b915061542c82615411565b600082019050919050565b600061544282615414565b9150819050919050565b7f4552433732313a20617070726f766520746f2063616c6c657200000000000000600082015250565b6000615482601983613cae565b915061548d8261544c565b602082019050919050565b600060208201905081810360008301526154b181615475565b9050919050565b7f4552433732313a207472616e7366657220746f206e6f6e20455243373231526560008201527f63656976657220696d706c656d656e7465720000000000000000000000000000602082015250565b6000615514603283613cae565b915061551f826154b8565b604082019050919050565b6000602082019050818103600083015261554381615507565b9050919050565b7f455243373231456e756d657261626c653a20636f6e736563757469766520747260008201527f616e7366657273206e6f7420737570706f727465640000000000000000000000602082015250565b60006155a6603583613cae565b91506155b18261554a565b604082019050919050565b600060208201905081810360008301526155d581615599565b9050919050565b600081519050919050565b600082825260208201905092915050565b6000615603826155dc565b61560d81856155e7565b935061561d818560208601613cbf565b61562681613ce9565b840191505092915050565b60006080820190506156466000830187613db4565b6156536020830186613db4565b6156606040830185613c79565b818103606083015261567281846155f8565b905095945050505050565b60008151905061568c81613c20565b92915050565b6000602082840312156156a8576156a7613b12565b5b60006156b68482850161567d565b91505092915050565b60006156ca82613b1c565b91506156d583613b1c565b92508282019050808211156156ed576156ec614597565b5b92915050565b7f4e487b7100000000000000000000000000000000000000000000000000000000600052603160045260246000fd5b7f4552433732313a206d696e7420746f20746865207a65726f2061646472657373600082015250565b6000615758602083613cae565b915061576382615722565b602082019050919050565b600060208201905081810360008301526157878161574b565b9050919050565b7f4552433732313a20746f6b656e20616c7265616479206d696e74656400000000600082015250565b60006157c4601c83613cae565b91506157cf8261578e565b602082019050919050565b600060208201905081810360008301526157f3816157b7565b905091905056fea2646970667358221220ccb34806805bcefd0b7e82a2b9481144412cfa2c67a21db3ad0eb07c31e9bae064736f6c63430008110033",
  "immutableReferences": {},
  "source": "// SPDX-License-Identifier: MIT\npragma solidity >=0.7.0 <0.9.0;\n\nimport \"../../node_modules/@openzeppelin/contracts/token/ERC721/ERC721.sol\";\nimport \"../../node_modules/@openzeppelin/contracts/token/ERC721/extensions/ERC721Enumerable.sol\";\nimport \"../../node_modules/@openzeppelin/contracts/access/Ownable.sol\";\nimport \"../../node_modules/@openzeppelin/contracts/utils/Strings.sol\";\n\n// This part will be in english since there won't be any italian customer reading internal files\n\ncontract WineNFT is ERC721Enumerable, Ownable {\n    using Strings for uint256;\n\n    mapping(string => uint8) existingURIs;\n    mapping(uint256 => address) public holderOf;\n\n    address public artist;\n    uint256 public royalityFee;\n    uint256 public supply = 0;\n    uint256 public totalTx = 0;\n    uint256 public cost = 0.0001 ether;\n\n    event Sale(\n        uint256 id,\n        address indexed owner,\n        uint256 cost,\n        string metadataURI,\n        uint256 timestamp\n    );\n\n    struct TransactionStruct {\n        uint256 id;\n        address owner;\n        uint256 cost;\n        string title;\n        string description;\n        string metadataURI;\n        uint256 timestamp;\n        bool isBuyable;\n    }\n\n    TransactionStruct[] transactions;\n    TransactionStruct[] minted;\n\n    constructor(\n        string memory _name,\n        string memory _symbol,\n        uint256 _royalityFee,\n        address _artist\n    ) ERC721(_name, _symbol) {\n        royalityFee = _royalityFee;\n        artist = _artist;\n    }\n\n    function payToMint(\n        string memory title,\n        string memory description,\n        string memory metadataURI,\n        uint256 salesPrice\n    ) external payable {\n        require(msg.value >= cost, \"Ether too low for minting!\");\n        require(existingURIs[metadataURI] == 0, \"This NFT is already minted!\");\n        require(msg.sender != owner(), \"Sales not allowed!\");\n\n        uint256 royality = (msg.value * royalityFee) / 100;\n        payTo(artist, royality);\n        payTo(owner(), (msg.value - royality));\n\n        supply++;\n\n        minted.push(\n            TransactionStruct(\n                supply,\n                msg.sender,\n                salesPrice,\n                title,\n                description,\n                metadataURI,\n                block.timestamp,\n                true\n            )\n        );\n\n        emit Sale(supply, msg.sender, msg.value, metadataURI, block.timestamp);\n\n        _safeMint(msg.sender, supply);\n        existingURIs[metadataURI] = 1;\n        holderOf[supply] = msg.sender;\n    }\n\n    function payToBuy(uint256 id) external payable {\n        require(\n            msg.value >= minted[id - 1].cost,\n            \"Ether too low for purchase!\"\n        );\n        require(msg.sender != minted[id - 1].owner, \"Operation Not Allowed!\");\n        require(minted[id - 1].isBuyable);\n\n        uint256 royality = (msg.value * royalityFee) / 100;\n        payTo(artist, royality);\n        payTo(minted[id - 1].owner, (msg.value - royality));\n\n        totalTx++;\n\n        // By default i'd like to have a non buyable token so the new user can check the bottle he bought and then change the price accordingly or else\n        transactions.push(\n            TransactionStruct(\n                totalTx,\n                msg.sender,\n                msg.value,\n                minted[id - 1].title,\n                minted[id - 1].description,\n                minted[id - 1].metadataURI,\n                block.timestamp,\n                false\n            )\n        );\n\n        emit Sale(\n            totalTx,\n            msg.sender,\n            msg.value,\n            minted[id - 1].metadataURI,\n            block.timestamp\n        );\n\n        minted[id - 1].owner = msg.sender;\n    }\n\n    function changePrice(uint256 id, uint256 newPrice) external returns (bool) {\n        require(newPrice > 0 ether, \"Ether too low!\");\n        require(msg.sender == minted[id - 1].owner, \"Operation Not Allowed!\");\n\n        minted[id - 1].cost = newPrice;\n        return true;\n    }\n\n    function changePrivacy(uint256 id, bool isBuyable) external returns (bool) {\n        require(isBuyable != minted[id - 1].isBuyable);\n        minted[id - 1].isBuyable = isBuyable;\n        return true;\n    }\n\n    function payTo(address to, uint256 amount) internal {\n        (bool success, ) = payable(to).call{value: amount}(\"\");\n        require(success);\n    }\n\n    function getAllNFTs() external view returns (TransactionStruct[] memory) {\n        return minted;\n    }\n\n    function getNFT(\n        uint256 id\n    ) external view returns (TransactionStruct memory) {\n        return minted[id - 1];\n    }\n\n    function getAllTransactions()\n        external\n        view\n        returns (TransactionStruct[] memory)\n    {\n        return transactions;\n    }\n}\n",
  "sourcePath": "/Users/alessandropucci/Desktop/progetti personali/nft-marketplace/nft-marketplace-frontend/contracts/contracts/NFTMarketplace.sol",
  "compiler": {
    "name": "solc",
    "version": "0.8.17+commit.8df45f5f.Emscripten.clang"
  },
  "schemaVersion": "3.4.11",
  "updatedAt": "2023-03-11T15:40:28.684Z",
  "networkType": "ethereum",
  "devdoc": {
    "kind": "dev",
    "methods": {
      "approve(address,uint256)": {
        "details": "See {IERC721-approve}."
      },
      "balanceOf(address)": {
        "details": "See {IERC721-balanceOf}."
      },
      "getApproved(uint256)": {
        "details": "See {IERC721-getApproved}."
      },
      "isApprovedForAll(address,address)": {
        "details": "See {IERC721-isApprovedForAll}."
      },
      "name()": {
        "details": "See {IERC721Metadata-name}."
      },
      "owner()": {
        "details": "Returns the address of the current owner."
      },
      "ownerOf(uint256)": {
        "details": "See {IERC721-ownerOf}."
      },
      "renounceOwnership()": {
        "details": "Leaves the contract without owner. It will not be possible to call `onlyOwner` functions anymore. Can only be called by the current owner. NOTE: Renouncing ownership will leave the contract without an owner, thereby removing any functionality that is only available to the owner."
      },
      "safeTransferFrom(address,address,uint256)": {
        "details": "See {IERC721-safeTransferFrom}."
      },
      "safeTransferFrom(address,address,uint256,bytes)": {
        "details": "See {IERC721-safeTransferFrom}."
      },
      "setApprovalForAll(address,bool)": {
        "details": "See {IERC721-setApprovalForAll}."
      },
      "supportsInterface(bytes4)": {
        "details": "See {IERC165-supportsInterface}."
      },
      "symbol()": {
        "details": "See {IERC721Metadata-symbol}."
      },
      "tokenByIndex(uint256)": {
        "details": "See {IERC721Enumerable-tokenByIndex}."
      },
      "tokenOfOwnerByIndex(address,uint256)": {
        "details": "See {IERC721Enumerable-tokenOfOwnerByIndex}."
      },
      "tokenURI(uint256)": {
        "details": "See {IERC721Metadata-tokenURI}."
      },
      "totalSupply()": {
        "details": "See {IERC721Enumerable-totalSupply}."
      },
      "transferFrom(address,address,uint256)": {
        "details": "See {IERC721-transferFrom}."
      },
      "transferOwnership(address)": {
        "details": "Transfers ownership of the contract to a new account (`newOwner`). Can only be called by the current owner."
      }
    },
    "version": 1
  },
  "userdoc": {
    "kind": "user",
    "methods": {},
    "version": 1
  }
}