{
  "contractName": "WineNFT",
  "abi": [
    {
      "inputs": [
        {
          "internalType": "string",
          "name": "_name",
          "type": "string"
        },
        {
          "internalType": "string",
          "name": "_symbol",
          "type": "string"
        },
        {
          "internalType": "uint256",
          "name": "_royalityFee",
          "type": "uint256"
        },
        {
          "internalType": "address",
          "name": "_artist",
          "type": "address"
        }
      ],
      "stateMutability": "nonpayable",
      "type": "constructor"
    },
    {
      "anonymous": false,
      "inputs": [
        {
          "indexed": true,
          "internalType": "address",
          "name": "owner",
          "type": "address"
        },
        {
          "indexed": true,
          "internalType": "address",
          "name": "approved",
          "type": "address"
        },
        {
          "indexed": true,
          "internalType": "uint256",
          "name": "tokenId",
          "type": "uint256"
        }
      ],
      "name": "Approval",
      "type": "event"
    },
    {
      "anonymous": false,
      "inputs": [
        {
          "indexed": true,
          "internalType": "address",
          "name": "owner",
          "type": "address"
        },
        {
          "indexed": true,
          "internalType": "address",
          "name": "operator",
          "type": "address"
        },
        {
          "indexed": false,
          "internalType": "bool",
          "name": "approved",
          "type": "bool"
        }
      ],
      "name": "ApprovalForAll",
      "type": "event"
    },
    {
      "anonymous": false,
      "inputs": [
        {
          "indexed": true,
          "internalType": "address",
          "name": "previousOwner",
          "type": "address"
        },
        {
          "indexed": true,
          "internalType": "address",
          "name": "newOwner",
          "type": "address"
        }
      ],
      "name": "OwnershipTransferred",
      "type": "event"
    },
    {
      "anonymous": false,
      "inputs": [
        {
          "indexed": false,
          "internalType": "uint256",
          "name": "id",
          "type": "uint256"
        },
        {
          "indexed": true,
          "internalType": "address",
          "name": "owner",
          "type": "address"
        },
        {
          "indexed": false,
          "internalType": "uint256",
          "name": "cost",
          "type": "uint256"
        },
        {
          "indexed": false,
          "internalType": "string",
          "name": "metadataURI",
          "type": "string"
        },
        {
          "indexed": false,
          "internalType": "uint256",
          "name": "timestamp",
          "type": "uint256"
        }
      ],
      "name": "Sale",
      "type": "event"
    },
    {
      "anonymous": false,
      "inputs": [
        {
          "indexed": true,
          "internalType": "address",
          "name": "from",
          "type": "address"
        },
        {
          "indexed": true,
          "internalType": "address",
          "name": "to",
          "type": "address"
        },
        {
          "indexed": true,
          "internalType": "uint256",
          "name": "tokenId",
          "type": "uint256"
        }
      ],
      "name": "Transfer",
      "type": "event"
    },
    {
      "inputs": [
        {
          "internalType": "address",
          "name": "to",
          "type": "address"
        },
        {
          "internalType": "uint256",
          "name": "tokenId",
          "type": "uint256"
        }
      ],
      "name": "approve",
      "outputs": [],
      "stateMutability": "nonpayable",
      "type": "function"
    },
    {
      "inputs": [],
      "name": "artist",
      "outputs": [
        {
          "internalType": "address",
          "name": "",
          "type": "address"
        }
      ],
      "stateMutability": "view",
      "type": "function",
      "constant": true
    },
    {
      "inputs": [
        {
          "internalType": "address",
          "name": "owner",
          "type": "address"
        }
      ],
      "name": "balanceOf",
      "outputs": [
        {
          "internalType": "uint256",
          "name": "",
          "type": "uint256"
        }
      ],
      "stateMutability": "view",
      "type": "function",
      "constant": true
    },
    {
      "inputs": [],
      "name": "cost",
      "outputs": [
        {
          "internalType": "uint256",
          "name": "",
          "type": "uint256"
        }
      ],
      "stateMutability": "view",
      "type": "function",
      "constant": true
    },
    {
      "inputs": [
        {
          "internalType": "uint256",
          "name": "tokenId",
          "type": "uint256"
        }
      ],
      "name": "getApproved",
      "outputs": [
        {
          "internalType": "address",
          "name": "",
          "type": "address"
        }
      ],
      "stateMutability": "view",
      "type": "function",
      "constant": true
    },
    {
      "inputs": [
        {
          "internalType": "uint256",
          "name": "",
          "type": "uint256"
        }
      ],
      "name": "holderOf",
      "outputs": [
        {
          "internalType": "address",
          "name": "",
          "type": "address"
        }
      ],
      "stateMutability": "view",
      "type": "function",
      "constant": true
    },
    {
      "inputs": [
        {
          "internalType": "address",
          "name": "owner",
          "type": "address"
        },
        {
          "internalType": "address",
          "name": "operator",
          "type": "address"
        }
      ],
      "name": "isApprovedForAll",
      "outputs": [
        {
          "internalType": "bool",
          "name": "",
          "type": "bool"
        }
      ],
      "stateMutability": "view",
      "type": "function",
      "constant": true
    },
    {
      "inputs": [],
      "name": "name",
      "outputs": [
        {
          "internalType": "string",
          "name": "",
          "type": "string"
        }
      ],
      "stateMutability": "view",
      "type": "function",
      "constant": true
    },
    {
      "inputs": [],
      "name": "owner",
      "outputs": [
        {
          "internalType": "address",
          "name": "",
          "type": "address"
        }
      ],
      "stateMutability": "view",
      "type": "function",
      "constant": true
    },
    {
      "inputs": [
        {
          "internalType": "uint256",
          "name": "tokenId",
          "type": "uint256"
        }
      ],
      "name": "ownerOf",
      "outputs": [
        {
          "internalType": "address",
          "name": "",
          "type": "address"
        }
      ],
      "stateMutability": "view",
      "type": "function",
      "constant": true
    },
    {
      "inputs": [],
      "name": "renounceOwnership",
      "outputs": [],
      "stateMutability": "nonpayable",
      "type": "function"
    },
    {
      "inputs": [],
      "name": "royalityFee",
      "outputs": [
        {
          "internalType": "uint256",
          "name": "",
          "type": "uint256"
        }
      ],
      "stateMutability": "view",
      "type": "function",
      "constant": true
    },
    {
      "inputs": [
        {
          "internalType": "address",
          "name": "from",
          "type": "address"
        },
        {
          "internalType": "address",
          "name": "to",
          "type": "address"
        },
        {
          "internalType": "uint256",
          "name": "tokenId",
          "type": "uint256"
        }
      ],
      "name": "safeTransferFrom",
      "outputs": [],
      "stateMutability": "nonpayable",
      "type": "function"
    },
    {
      "inputs": [
        {
          "internalType": "address",
          "name": "from",
          "type": "address"
        },
        {
          "internalType": "address",
          "name": "to",
          "type": "address"
        },
        {
          "internalType": "uint256",
          "name": "tokenId",
          "type": "uint256"
        },
        {
          "internalType": "bytes",
          "name": "data",
          "type": "bytes"
        }
      ],
      "name": "safeTransferFrom",
      "outputs": [],
      "stateMutability": "nonpayable",
      "type": "function"
    },
    {
      "inputs": [
        {
          "internalType": "address",
          "name": "operator",
          "type": "address"
        },
        {
          "internalType": "bool",
          "name": "approved",
          "type": "bool"
        }
      ],
      "name": "setApprovalForAll",
      "outputs": [],
      "stateMutability": "nonpayable",
      "type": "function"
    },
    {
      "inputs": [],
      "name": "supply",
      "outputs": [
        {
          "internalType": "uint256",
          "name": "",
          "type": "uint256"
        }
      ],
      "stateMutability": "view",
      "type": "function",
      "constant": true
    },
    {
      "inputs": [
        {
          "internalType": "bytes4",
          "name": "interfaceId",
          "type": "bytes4"
        }
      ],
      "name": "supportsInterface",
      "outputs": [
        {
          "internalType": "bool",
          "name": "",
          "type": "bool"
        }
      ],
      "stateMutability": "view",
      "type": "function",
      "constant": true
    },
    {
      "inputs": [],
      "name": "symbol",
      "outputs": [
        {
          "internalType": "string",
          "name": "",
          "type": "string"
        }
      ],
      "stateMutability": "view",
      "type": "function",
      "constant": true
    },
    {
      "inputs": [
        {
          "internalType": "uint256",
          "name": "index",
          "type": "uint256"
        }
      ],
      "name": "tokenByIndex",
      "outputs": [
        {
          "internalType": "uint256",
          "name": "",
          "type": "uint256"
        }
      ],
      "stateMutability": "view",
      "type": "function",
      "constant": true
    },
    {
      "inputs": [
        {
          "internalType": "address",
          "name": "owner",
          "type": "address"
        },
        {
          "internalType": "uint256",
          "name": "index",
          "type": "uint256"
        }
      ],
      "name": "tokenOfOwnerByIndex",
      "outputs": [
        {
          "internalType": "uint256",
          "name": "",
          "type": "uint256"
        }
      ],
      "stateMutability": "view",
      "type": "function",
      "constant": true
    },
    {
      "inputs": [
        {
          "internalType": "uint256",
          "name": "tokenId",
          "type": "uint256"
        }
      ],
      "name": "tokenURI",
      "outputs": [
        {
          "internalType": "string",
          "name": "",
          "type": "string"
        }
      ],
      "stateMutability": "view",
      "type": "function",
      "constant": true
    },
    {
      "inputs": [],
      "name": "totalSupply",
      "outputs": [
        {
          "internalType": "uint256",
          "name": "",
          "type": "uint256"
        }
      ],
      "stateMutability": "view",
      "type": "function",
      "constant": true
    },
    {
      "inputs": [],
      "name": "totalTx",
      "outputs": [
        {
          "internalType": "uint256",
          "name": "",
          "type": "uint256"
        }
      ],
      "stateMutability": "view",
      "type": "function",
      "constant": true
    },
    {
      "inputs": [
        {
          "internalType": "address",
          "name": "from",
          "type": "address"
        },
        {
          "internalType": "address",
          "name": "to",
          "type": "address"
        },
        {
          "internalType": "uint256",
          "name": "tokenId",
          "type": "uint256"
        }
      ],
      "name": "transferFrom",
      "outputs": [],
      "stateMutability": "nonpayable",
      "type": "function"
    },
    {
      "inputs": [
        {
          "internalType": "address",
          "name": "newOwner",
          "type": "address"
        }
      ],
      "name": "transferOwnership",
      "outputs": [],
      "stateMutability": "nonpayable",
      "type": "function"
    },
    {
      "inputs": [
        {
          "internalType": "string",
          "name": "title",
          "type": "string"
        },
        {
          "internalType": "string",
          "name": "description",
          "type": "string"
        },
        {
          "internalType": "string",
          "name": "metadataURI",
          "type": "string"
        },
        {
          "internalType": "string",
          "name": "year",
          "type": "string"
        },
        {
          "internalType": "uint256",
          "name": "salesPrice",
          "type": "uint256"
        }
      ],
      "name": "payToMint",
      "outputs": [],
      "stateMutability": "payable",
      "type": "function",
      "payable": true
    },
    {
      "inputs": [
        {
          "internalType": "uint256",
          "name": "id",
          "type": "uint256"
        }
      ],
      "name": "payToBuy",
      "outputs": [],
      "stateMutability": "payable",
      "type": "function",
      "payable": true
    },
    {
      "inputs": [
        {
          "internalType": "uint256",
          "name": "id",
          "type": "uint256"
        },
        {
          "internalType": "uint256",
          "name": "newPrice",
          "type": "uint256"
        }
      ],
      "name": "changePrice",
      "outputs": [
        {
          "internalType": "bool",
          "name": "",
          "type": "bool"
        }
      ],
      "stateMutability": "nonpayable",
      "type": "function"
    },
    {
      "inputs": [
        {
          "internalType": "uint256",
          "name": "id",
          "type": "uint256"
        },
        {
          "internalType": "bool",
          "name": "isBuyable",
          "type": "bool"
        }
      ],
      "name": "changePrivacy",
      "outputs": [
        {
          "internalType": "bool",
          "name": "",
          "type": "bool"
        }
      ],
      "stateMutability": "nonpayable",
      "type": "function"
    },
    {
      "inputs": [],
      "name": "getAllNFTs",
      "outputs": [
        {
          "components": [
            {
              "internalType": "uint256",
              "name": "id",
              "type": "uint256"
            },
            {
              "internalType": "address",
              "name": "owner",
              "type": "address"
            },
            {
              "internalType": "uint256",
              "name": "cost",
              "type": "uint256"
            },
            {
              "internalType": "string",
              "name": "title",
              "type": "string"
            },
            {
              "internalType": "string",
              "name": "year",
              "type": "string"
            },
            {
              "internalType": "string",
              "name": "description",
              "type": "string"
            },
            {
              "internalType": "string",
              "name": "metadataURI",
              "type": "string"
            },
            {
              "internalType": "uint256",
              "name": "timestamp",
              "type": "uint256"
            },
            {
              "internalType": "bool",
              "name": "isBuyable",
              "type": "bool"
            }
          ],
          "internalType": "struct WineNFT.TransactionStruct[]",
          "name": "",
          "type": "tuple[]"
        }
      ],
      "stateMutability": "view",
      "type": "function",
      "constant": true
    },
    {
      "inputs": [
        {
          "internalType": "uint256",
          "name": "id",
          "type": "uint256"
        }
      ],
      "name": "getNFT",
      "outputs": [
        {
          "components": [
            {
              "internalType": "uint256",
              "name": "id",
              "type": "uint256"
            },
            {
              "internalType": "address",
              "name": "owner",
              "type": "address"
            },
            {
              "internalType": "uint256",
              "name": "cost",
              "type": "uint256"
            },
            {
              "internalType": "string",
              "name": "title",
              "type": "string"
            },
            {
              "internalType": "string",
              "name": "year",
              "type": "string"
            },
            {
              "internalType": "string",
              "name": "description",
              "type": "string"
            },
            {
              "internalType": "string",
              "name": "metadataURI",
              "type": "string"
            },
            {
              "internalType": "uint256",
              "name": "timestamp",
              "type": "uint256"
            },
            {
              "internalType": "bool",
              "name": "isBuyable",
              "type": "bool"
            }
          ],
          "internalType": "struct WineNFT.TransactionStruct",
          "name": "",
          "type": "tuple"
        }
      ],
      "stateMutability": "view",
      "type": "function",
      "constant": true
    },
    {
      "inputs": [],
      "name": "getAllTransactions",
      "outputs": [
        {
          "components": [
            {
              "internalType": "uint256",
              "name": "id",
              "type": "uint256"
            },
            {
              "internalType": "address",
              "name": "owner",
              "type": "address"
            },
            {
              "internalType": "uint256",
              "name": "cost",
              "type": "uint256"
            },
            {
              "internalType": "string",
              "name": "title",
              "type": "string"
            },
            {
              "internalType": "string",
              "name": "year",
              "type": "string"
            },
            {
              "internalType": "string",
              "name": "description",
              "type": "string"
            },
            {
              "internalType": "string",
              "name": "metadataURI",
              "type": "string"
            },
            {
              "internalType": "uint256",
              "name": "timestamp",
              "type": "uint256"
            },
            {
              "internalType": "bool",
              "name": "isBuyable",
              "type": "bool"
            }
          ],
          "internalType": "struct WineNFT.TransactionStruct[]",
          "name": "",
          "type": "tuple[]"
        }
      ],
      "stateMutability": "view",
      "type": "function",
      "constant": true
    }
  ],
  "bytecode": "0x60806040526000600f556000601055655af3107a40006011553480156200002557600080fd5b50604051620063173803806200631783398181016040528101906200004b9190620003e6565b838381600090816200005e9190620006d7565b508060019081620000709190620006d7565b5050506200009362000087620000e560201b60201c565b620000ed60201b60201c565b81600e8190555080600d60006101000a81548173ffffffffffffffffffffffffffffffffffffffff021916908373ffffffffffffffffffffffffffffffffffffffff16021790555050505050620007be565b600033905090565b6000600a60009054906101000a900473ffffffffffffffffffffffffffffffffffffffff16905081600a60006101000a81548173ffffffffffffffffffffffffffffffffffffffff021916908373ffffffffffffffffffffffffffffffffffffffff1602179055508173ffffffffffffffffffffffffffffffffffffffff168173ffffffffffffffffffffffffffffffffffffffff167f8be0079c531659141344cd1fd0a4f28419497f9722a3daafe3b4186f6b6457e060405160405180910390a35050565b6000604051905090565b600080fd5b600080fd5b600080fd5b600080fd5b6000601f19601f8301169050919050565b7f4e487b7100000000000000000000000000000000000000000000000000000000600052604160045260246000fd5b6200021c82620001d1565b810181811067ffffffffffffffff821117156200023e576200023d620001e2565b5b80604052505050565b600062000253620001b3565b905062000261828262000211565b919050565b600067ffffffffffffffff821115620002845762000283620001e2565b5b6200028f82620001d1565b9050602081019050919050565b60005b83811015620002bc5780820151818401526020810190506200029f565b60008484015250505050565b6000620002df620002d98462000266565b62000247565b905082815260208101848484011115620002fe57620002fd620001cc565b5b6200030b8482856200029c565b509392505050565b600082601f8301126200032b576200032a620001c7565b5b81516200033d848260208601620002c8565b91505092915050565b6000819050919050565b6200035b8162000346565b81146200036757600080fd5b50565b6000815190506200037b8162000350565b92915050565b600073ffffffffffffffffffffffffffffffffffffffff82169050919050565b6000620003ae8262000381565b9050919050565b620003c081620003a1565b8114620003cc57600080fd5b50565b600081519050620003e081620003b5565b92915050565b60008060008060808587031215620004035762000402620001bd565b5b600085015167ffffffffffffffff811115620004245762000423620001c2565b5b620004328782880162000313565b945050602085015167ffffffffffffffff811115620004565762000455620001c2565b5b620004648782880162000313565b935050604062000477878288016200036a565b92505060606200048a87828801620003cf565b91505092959194509250565b600081519050919050565b7f4e487b7100000000000000000000000000000000000000000000000000000000600052602260045260246000fd5b60006002820490506001821680620004e957607f821691505b602082108103620004ff57620004fe620004a1565b5b50919050565b60008190508160005260206000209050919050565b60006020601f8301049050919050565b600082821b905092915050565b600060088302620005697fffffffffffffffffffffffffffffffffffffffffffffffffffffffffffffffff826200052a565b6200057586836200052a565b95508019841693508086168417925050509392505050565b6000819050919050565b6000620005b8620005b2620005ac8462000346565b6200058d565b62000346565b9050919050565b6000819050919050565b620005d48362000597565b620005ec620005e382620005bf565b84845462000537565b825550505050565b600090565b62000603620005f4565b62000610818484620005c9565b505050565b5b8181101562000638576200062c600082620005f9565b60018101905062000616565b5050565b601f8211156200068757620006518162000505565b6200065c846200051a565b810160208510156200066c578190505b620006846200067b856200051a565b83018262000615565b50505b505050565b600082821c905092915050565b6000620006ac600019846008026200068c565b1980831691505092915050565b6000620006c7838362000699565b9150826002028217905092915050565b620006e28262000496565b67ffffffffffffffff811115620006fe57620006fd620001e2565b5b6200070a8254620004d0565b620007178282856200063c565b600060209050601f8311600181146200074f57600084156200073a578287015190505b620007468582620006b9565b865550620007b6565b601f1984166200075f8662000505565b60005b82811015620007895784890151825560018201915060208501945060208101905062000762565b86831015620007a95784890151620007a5601f89168262000699565b8355505b6001600288020188555050505b505050505050565b615b4980620007ce6000396000f3fe6080604052600436106101e25760003560e01c8063576f7ea711610102578063a22cb46511610095578063dbacc23711610064578063dbacc23714610713578063e0391b0914610750578063e985e9c51461077b578063f2fde38b146107b8576101e2565b8063a22cb46514610647578063b3de019c14610670578063b88d4fde146106ad578063c87b56dd146106d6576101e2565b80637220cf39116100d15780637220cf39146105aa5780638da5cb5b146105d557806395d89b41146106005780639ba4b0171461062b576101e2565b8063576f7ea7146104dc5780636352211e1461051957806370a0823114610556578063715018a614610593576101e2565b806323b872dd1161017a57806342842e0e1161014957806342842e0e1461042f57806343bc16121461045857806349daf7fe146104835780634f6ccce71461049f576101e2565b806323b872dd1461037357806327506f531461039c5780632f745c59146103c7578063326bb4ad14610404576101e2565b8063081812fc116101b6578063081812fc146102b7578063095ea7b3146102f457806313faede61461031d57806318160ddd14610348576101e2565b8062056162146101e757806301ffc9a714610224578063047fc9aa1461026157806306fdde031461028c575b600080fd5b3480156101f357600080fd5b5061020e60048036038101906102099190613e3b565b6107e1565b60405161021b9190613e8a565b60405180910390f35b34801561023057600080fd5b5061024b60048036038101906102469190613efd565b610884565b6040516102589190613e8a565b60405180910390f35b34801561026d57600080fd5b506102766108fe565b6040516102839190613f39565b60405180910390f35b34801561029857600080fd5b506102a1610904565b6040516102ae9190613fe4565b60405180910390f35b3480156102c357600080fd5b506102de60048036038101906102d99190614006565b610996565b6040516102eb9190614074565b60405180910390f35b34801561030057600080fd5b5061031b600480360381019061031691906140bb565b6109dc565b005b34801561032957600080fd5b50610332610af3565b60405161033f9190613f39565b60405180910390f35b34801561035457600080fd5b5061035d610af9565b60405161036a9190613f39565b60405180910390f35b34801561037f57600080fd5b5061039a600480360381019061039591906140fb565b610b06565b005b3480156103a857600080fd5b506103b1610b66565b6040516103be9190614361565b60405180910390f35b3480156103d357600080fd5b506103ee60048036038101906103e991906140bb565b610e9d565b6040516103fb9190613f39565b60405180910390f35b34801561041057600080fd5b50610419610f42565b6040516104269190613f39565b60405180910390f35b34801561043b57600080fd5b50610456600480360381019061045191906140fb565b610f48565b005b34801561046457600080fd5b5061046d610f68565b60405161047a9190614074565b60405180910390f35b61049d600480360381019061049891906144b8565b610f8e565b005b3480156104ab57600080fd5b506104c660048036038101906104c19190614006565b611393565b6040516104d39190613f39565b60405180910390f35b3480156104e857600080fd5b5061050360048036038101906104fe9190614006565b611404565b604051610510919061467d565b60405180910390f35b34801561052557600080fd5b50610540600480360381019061053b9190614006565b611724565b60405161054d9190614074565b60405180910390f35b34801561056257600080fd5b5061057d6004803603810190610578919061469f565b6117aa565b60405161058a9190613f39565b60405180910390f35b34801561059f57600080fd5b506105a8611861565b005b3480156105b657600080fd5b506105bf611875565b6040516105cc9190613f39565b60405180910390f35b3480156105e157600080fd5b506105ea61187b565b6040516105f79190614074565b60405180910390f35b34801561060c57600080fd5b506106156118a5565b6040516106229190613fe4565b60405180910390f35b61064560048036038101906106409190614006565b611937565b005b34801561065357600080fd5b5061066e600480360381019061066991906146cc565b6120be565b005b34801561067c57600080fd5b506106976004803603810190610692919061470c565b6120d4565b6040516106a49190613e8a565b60405180910390f35b3480156106b957600080fd5b506106d460048036038101906106cf91906147ed565b612217565b005b3480156106e257600080fd5b506106fd60048036038101906106f89190614006565b612279565b60405161070a9190613fe4565b60405180910390f35b34801561071f57600080fd5b5061073a60048036038101906107359190614006565b6122e1565b6040516107479190614074565b60405180910390f35b34801561075c57600080fd5b50610765612314565b6040516107729190614361565b60405180910390f35b34801561078757600080fd5b506107a2600480360381019061079d9190614870565b61264b565b6040516107af9190613e8a565b60405180910390f35b3480156107c457600080fd5b506107df60048036038101906107da919061469f565b6126df565b005b600060136001846107f291906148df565b8154811061080357610802614913565b5b906000526020600020906009020160080160009054906101000a900460ff1615158215150361083157600080fd5b81601360018561084191906148df565b8154811061085257610851614913565b5b906000526020600020906009020160080160006101000a81548160ff0219169083151502179055506001905092915050565b60007f780e9d63000000000000000000000000000000000000000000000000000000007bffffffffffffffffffffffffffffffffffffffffffffffffffffffff1916827bffffffffffffffffffffffffffffffffffffffffffffffffffffffff191614806108f757506108f682612762565b5b9050919050565b600f5481565b60606000805461091390614971565b80601f016020809104026020016040519081016040528092919081815260200182805461093f90614971565b801561098c5780601f106109615761010080835404028352916020019161098c565b820191906000526020600020905b81548152906001019060200180831161096f57829003601f168201915b5050505050905090565b60006109a182612844565b6004600083815260200190815260200160002060009054906101000a900473ffffffffffffffffffffffffffffffffffffffff169050919050565b60006109e782611724565b90508073ffffffffffffffffffffffffffffffffffffffff168373ffffffffffffffffffffffffffffffffffffffff1603610a57576040517f08c379a0000000000000000000000000000000000000000000000000000000008152600401610a4e90614a14565b60405180910390fd5b8073ffffffffffffffffffffffffffffffffffffffff16610a7661288f565b73ffffffffffffffffffffffffffffffffffffffff161480610aa55750610aa481610a9f61288f565b61264b565b5b610ae4576040517f08c379a0000000000000000000000000000000000000000000000000000000008152600401610adb90614aa6565b60405180910390fd5b610aee8383612897565b505050565b60115481565b6000600880549050905090565b610b17610b1161288f565b82612950565b610b56576040517f08c379a0000000000000000000000000000000000000000000000000000000008152600401610b4d90614b38565b60405180910390fd5b610b618383836129e5565b505050565b60606012805480602002602001604051908101604052809291908181526020016000905b82821015610e94578382906000526020600020906009020160405180610120016040529081600082015481526020016001820160009054906101000a900473ffffffffffffffffffffffffffffffffffffffff1673ffffffffffffffffffffffffffffffffffffffff1673ffffffffffffffffffffffffffffffffffffffff16815260200160028201548152602001600382018054610c2890614971565b80601f0160208091040260200160405190810160405280929190818152602001828054610c5490614971565b8015610ca15780601f10610c7657610100808354040283529160200191610ca1565b820191906000526020600020905b815481529060010190602001808311610c8457829003601f168201915b50505050508152602001600482018054610cba90614971565b80601f0160208091040260200160405190810160405280929190818152602001828054610ce690614971565b8015610d335780601f10610d0857610100808354040283529160200191610d33565b820191906000526020600020905b815481529060010190602001808311610d1657829003601f168201915b50505050508152602001600582018054610d4c90614971565b80601f0160208091040260200160405190810160405280929190818152602001828054610d7890614971565b8015610dc55780601f10610d9a57610100808354040283529160200191610dc5565b820191906000526020600020905b815481529060010190602001808311610da857829003601f168201915b50505050508152602001600682018054610dde90614971565b80601f0160208091040260200160405190810160405280929190818152602001828054610e0a90614971565b8015610e575780601f10610e2c57610100808354040283529160200191610e57565b820191906000526020600020905b815481529060010190602001808311610e3a57829003601f168201915b50505050508152602001600782015481526020016008820160009054906101000a900460ff16151515158152505081526020019060010190610b8a565b50505050905090565b6000610ea8836117aa565b8210610ee9576040517f08c379a0000000000000000000000000000000000000000000000000000000008152600401610ee090614bca565b60405180910390fd5b600660008473ffffffffffffffffffffffffffffffffffffffff1673ffffffffffffffffffffffffffffffffffffffff168152602001908152602001600020600083815260200190815260200160002054905092915050565b600e5481565b610f6383838360405180602001604052806000815250612217565b505050565b600d60009054906101000a900473ffffffffffffffffffffffffffffffffffffffff1681565b601154341015610fd3576040517f08c379a0000000000000000000000000000000000000000000000000000000008152600401610fca90614c36565b60405180910390fd5b6000600b84604051610fe59190614c92565b908152602001604051809103902060009054906101000a900460ff1660ff1614611044576040517f08c379a000000000000000000000000000000000000000000000000000000000815260040161103b90614cf5565b60405180910390fd5b61104c61187b565b73ffffffffffffffffffffffffffffffffffffffff163373ffffffffffffffffffffffffffffffffffffffff16036110b9576040517f08c379a00000000000000000000000000000000000000000000000000000000081526004016110b090614d61565b60405180910390fd5b60006064600e54346110cb9190614d81565b6110d59190614df2565b9050611103600d60009054906101000a900473ffffffffffffffffffffffffffffffffffffffff1682612cde565b61111f61110e61187b565b823461111a91906148df565b612cde565b600f600081548092919061113290614e23565b91905055506013604051806101200160405280600f5481526020013373ffffffffffffffffffffffffffffffffffffffff1681526020018481526020018881526020018781526020018681526020018581526020014281526020016001151581525090806001815401808255809150506001900390600052602060002090600902016000909190919091506000820151816000015560208201518160010160006101000a81548173ffffffffffffffffffffffffffffffffffffffff021916908373ffffffffffffffffffffffffffffffffffffffff16021790555060408201518160020155606082015181600301908161122d9190615017565b5060808201518160040190816112439190615017565b5060a08201518160050190816112599190615017565b5060c082015181600601908161126f9190615017565b5060e082015181600701556101008201518160080160006101000a81548160ff02191690831515021790555050503373ffffffffffffffffffffffffffffffffffffffff167fb9508407a6eccb191d8da3286f4173697cf95604e9ea192fe5ab7c862b5221f6600f543487426040516112eb94939291906150e9565b60405180910390a26112ff33600f54612d59565b6001600b856040516113119190614c92565b908152602001604051809103902060006101000a81548160ff021916908360ff16021790555033600c6000600f54815260200190815260200160002060006101000a81548173ffffffffffffffffffffffffffffffffffffffff021916908373ffffffffffffffffffffffffffffffffffffffff160217905550505050505050565b600061139d610af9565b82106113de576040517f08c379a00000000000000000000000000000000000000000000000000000000081526004016113d5906151a7565b60405180910390fd5b600882815481106113f2576113f1614913565b5b90600052602060002001549050919050565b61140c613d55565b601360018361141b91906148df565b8154811061142c5761142b614913565b5b906000526020600020906009020160405180610120016040529081600082015481526020016001820160009054906101000a900473ffffffffffffffffffffffffffffffffffffffff1673ffffffffffffffffffffffffffffffffffffffff1673ffffffffffffffffffffffffffffffffffffffff168152602001600282015481526020016003820180546114c090614971565b80601f01602080910402602001604051908101604052809291908181526020018280546114ec90614971565b80156115395780601f1061150e57610100808354040283529160200191611539565b820191906000526020600020905b81548152906001019060200180831161151c57829003601f168201915b5050505050815260200160048201805461155290614971565b80601f016020809104026020016040519081016040528092919081815260200182805461157e90614971565b80156115cb5780601f106115a0576101008083540402835291602001916115cb565b820191906000526020600020905b8154815290600101906020018083116115ae57829003601f168201915b505050505081526020016005820180546115e490614971565b80601f016020809104026020016040519081016040528092919081815260200182805461161090614971565b801561165d5780601f106116325761010080835404028352916020019161165d565b820191906000526020600020905b81548152906001019060200180831161164057829003601f168201915b5050505050815260200160068201805461167690614971565b80601f01602080910402602001604051908101604052809291908181526020018280546116a290614971565b80156116ef5780601f106116c4576101008083540402835291602001916116ef565b820191906000526020600020905b8154815290600101906020018083116116d257829003601f168201915b50505050508152602001600782015481526020016008820160009054906101000a900460ff1615151515815250509050919050565b60008061173083612d77565b9050600073ffffffffffffffffffffffffffffffffffffffff168173ffffffffffffffffffffffffffffffffffffffff16036117a1576040517f08c379a000000000000000000000000000000000000000000000000000000000815260040161179890615213565b60405180910390fd5b80915050919050565b60008073ffffffffffffffffffffffffffffffffffffffff168273ffffffffffffffffffffffffffffffffffffffff160361181a576040517f08c379a0000000000000000000000000000000000000000000000000000000008152600401611811906152a5565b60405180910390fd5b600360008373ffffffffffffffffffffffffffffffffffffffff1673ffffffffffffffffffffffffffffffffffffffff168152602001908152602001600020549050919050565b611869612db4565b6118736000612e32565b565b60105481565b6000600a60009054906101000a900473ffffffffffffffffffffffffffffffffffffffff16905090565b6060600180546118b490614971565b80601f01602080910402602001604051908101604052809291908181526020018280546118e090614971565b801561192d5780601f106119025761010080835404028352916020019161192d565b820191906000526020600020905b81548152906001019060200180831161191057829003601f168201915b5050505050905090565b601360018261194691906148df565b8154811061195757611956614913565b5b9060005260206000209060090201600201543410156119ab576040517f08c379a00000000000000000000000000000000000000000000000000000000081526004016119a290615311565b60405180910390fd5b60136001826119ba91906148df565b815481106119cb576119ca614913565b5b906000526020600020906009020160010160009054906101000a900473ffffffffffffffffffffffffffffffffffffffff1673ffffffffffffffffffffffffffffffffffffffff163373ffffffffffffffffffffffffffffffffffffffff1603611a6a576040517f08c379a0000000000000000000000000000000000000000000000000000000008152600401611a619061537d565b60405180910390fd5b6013600182611a7991906148df565b81548110611a8a57611a89614913565b5b906000526020600020906009020160080160009054906101000a900460ff16611ab257600080fd5b60006064600e5434611ac49190614d81565b611ace9190614df2565b9050611afc600d60009054906101000a900473ffffffffffffffffffffffffffffffffffffffff1682612cde565b611b626013600184611b0e91906148df565b81548110611b1f57611b1e614913565b5b906000526020600020906009020160010160009054906101000a900473ffffffffffffffffffffffffffffffffffffffff168234611b5d91906148df565b612cde565b60106000815480929190611b7590614e23565b9190505550601260405180610120016040528060105481526020013373ffffffffffffffffffffffffffffffffffffffff1681526020013481526020016013600186611bc191906148df565b81548110611bd257611bd1614913565b5b90600052602060002090600902016003018054611bee90614971565b80601f0160208091040260200160405190810160405280929190818152602001828054611c1a90614971565b8015611c675780601f10611c3c57610100808354040283529160200191611c67565b820191906000526020600020905b815481529060010190602001808311611c4a57829003601f168201915b505050505081526020016013600186611c8091906148df565b81548110611c9157611c90614913565b5b90600052602060002090600902016005018054611cad90614971565b80601f0160208091040260200160405190810160405280929190818152602001828054611cd990614971565b8015611d265780601f10611cfb57610100808354040283529160200191611d26565b820191906000526020600020905b815481529060010190602001808311611d0957829003601f168201915b505050505081526020016013600186611d3f91906148df565b81548110611d5057611d4f614913565b5b90600052602060002090600902016006018054611d6c90614971565b80601f0160208091040260200160405190810160405280929190818152602001828054611d9890614971565b8015611de55780601f10611dba57610100808354040283529160200191611de5565b820191906000526020600020905b815481529060010190602001808311611dc857829003601f168201915b505050505081526020016013600186611dfe91906148df565b81548110611e0f57611e0e614913565b5b90600052602060002090600902016004018054611e2b90614971565b80601f0160208091040260200160405190810160405280929190818152602001828054611e5790614971565b8015611ea45780601f10611e7957610100808354040283529160200191611ea4565b820191906000526020600020905b815481529060010190602001808311611e8757829003601f168201915b505050505081526020014281526020016000151581525090806001815401808255809150506001900390600052602060002090600902016000909190919091506000820151816000015560208201518160010160006101000a81548173ffffffffffffffffffffffffffffffffffffffff021916908373ffffffffffffffffffffffffffffffffffffffff160217905550604082015181600201556060820151816003019081611f549190615017565b506080820151816004019081611f6a9190615017565b5060a0820151816005019081611f809190615017565b5060c0820151816006019081611f969190615017565b5060e082015181600701556101008201518160080160006101000a81548160ff02191690831515021790555050503373ffffffffffffffffffffffffffffffffffffffff167fb9508407a6eccb191d8da3286f4173697cf95604e9ea192fe5ab7c862b5221f660105434601360018761200f91906148df565b815481106120205761201f614913565b5b9060005260206000209060090201600601426040516120429493929190615421565b60405180910390a233601360018461205a91906148df565b8154811061206b5761206a614913565b5b906000526020600020906009020160010160006101000a81548173ffffffffffffffffffffffffffffffffffffffff021916908373ffffffffffffffffffffffffffffffffffffffff1602179055505050565b6120d06120c961288f565b8383612ef8565b5050565b6000808211612118576040517f08c379a000000000000000000000000000000000000000000000000000000000815260040161210f906154b9565b60405180910390fd5b601360018461212791906148df565b8154811061213857612137614913565b5b906000526020600020906009020160010160009054906101000a900473ffffffffffffffffffffffffffffffffffffffff1673ffffffffffffffffffffffffffffffffffffffff163373ffffffffffffffffffffffffffffffffffffffff16146121d7576040517f08c379a00000000000000000000000000000000000000000000000000000000081526004016121ce9061537d565b60405180910390fd5b8160136001856121e791906148df565b815481106121f8576121f7614913565b5b9060005260206000209060090201600201819055506001905092915050565b61222861222261288f565b83612950565b612267576040517f08c379a000000000000000000000000000000000000000000000000000000000815260040161225e90614b38565b60405180910390fd5b61227384848484613064565b50505050565b606061228482612844565b600061228e6130c0565b905060008151116122ae57604051806020016040528060008152506122d9565b806122b8846130d7565b6040516020016122c99291906154d9565b6040516020818303038152906040525b915050919050565b600c6020528060005260406000206000915054906101000a900473ffffffffffffffffffffffffffffffffffffffff1681565b60606013805480602002602001604051908101604052809291908181526020016000905b82821015612642578382906000526020600020906009020160405180610120016040529081600082015481526020016001820160009054906101000a900473ffffffffffffffffffffffffffffffffffffffff1673ffffffffffffffffffffffffffffffffffffffff1673ffffffffffffffffffffffffffffffffffffffff168152602001600282015481526020016003820180546123d690614971565b80601f016020809104026020016040519081016040528092919081815260200182805461240290614971565b801561244f5780601f106124245761010080835404028352916020019161244f565b820191906000526020600020905b81548152906001019060200180831161243257829003601f168201915b5050505050815260200160048201805461246890614971565b80601f016020809104026020016040519081016040528092919081815260200182805461249490614971565b80156124e15780601f106124b6576101008083540402835291602001916124e1565b820191906000526020600020905b8154815290600101906020018083116124c457829003601f168201915b505050505081526020016005820180546124fa90614971565b80601f016020809104026020016040519081016040528092919081815260200182805461252690614971565b80156125735780601f1061254857610100808354040283529160200191612573565b820191906000526020600020905b81548152906001019060200180831161255657829003601f168201915b5050505050815260200160068201805461258c90614971565b80601f01602080910402602001604051908101604052809291908181526020018280546125b890614971565b80156126055780601f106125da57610100808354040283529160200191612605565b820191906000526020600020905b8154815290600101906020018083116125e857829003601f168201915b50505050508152602001600782015481526020016008820160009054906101000a900460ff16151515158152505081526020019060010190612338565b50505050905090565b6000600560008473ffffffffffffffffffffffffffffffffffffffff1673ffffffffffffffffffffffffffffffffffffffff16815260200190815260200160002060008373ffffffffffffffffffffffffffffffffffffffff1673ffffffffffffffffffffffffffffffffffffffff16815260200190815260200160002060009054906101000a900460ff16905092915050565b6126e7612db4565b600073ffffffffffffffffffffffffffffffffffffffff168173ffffffffffffffffffffffffffffffffffffffff1603612756576040517f08c379a000000000000000000000000000000000000000000000000000000000815260040161274d9061556f565b60405180910390fd5b61275f81612e32565b50565b60007f80ac58cd000000000000000000000000000000000000000000000000000000007bffffffffffffffffffffffffffffffffffffffffffffffffffffffff1916827bffffffffffffffffffffffffffffffffffffffffffffffffffffffff1916148061282d57507f5b5e139f000000000000000000000000000000000000000000000000000000007bffffffffffffffffffffffffffffffffffffffffffffffffffffffff1916827bffffffffffffffffffffffffffffffffffffffffffffffffffffffff1916145b8061283d575061283c826131a5565b5b9050919050565b61284d8161320f565b61288c576040517f08c379a000000000000000000000000000000000000000000000000000000000815260040161288390615213565b60405180910390fd5b50565b600033905090565b816004600083815260200190815260200160002060006101000a81548173ffffffffffffffffffffffffffffffffffffffff021916908373ffffffffffffffffffffffffffffffffffffffff160217905550808273ffffffffffffffffffffffffffffffffffffffff1661290a83611724565b73ffffffffffffffffffffffffffffffffffffffff167f8c5be1e5ebec7d5bd14f71427d1e84f3dd0314c0f7b2291e5b200ac8c7c3b92560405160405180910390a45050565b60008061295c83611724565b90508073ffffffffffffffffffffffffffffffffffffffff168473ffffffffffffffffffffffffffffffffffffffff16148061299e575061299d818561264b565b5b806129dc57508373ffffffffffffffffffffffffffffffffffffffff166129c484610996565b73ffffffffffffffffffffffffffffffffffffffff16145b91505092915050565b8273ffffffffffffffffffffffffffffffffffffffff16612a0582611724565b73ffffffffffffffffffffffffffffffffffffffff1614612a5b576040517f08c379a0000000000000000000000000000000000000000000000000000000008152600401612a5290615601565b60405180910390fd5b600073ffffffffffffffffffffffffffffffffffffffff168273ffffffffffffffffffffffffffffffffffffffff1603612aca576040517f08c379a0000000000000000000000000000000000000000000000000000000008152600401612ac190615693565b60405180910390fd5b612ad78383836001613250565b8273ffffffffffffffffffffffffffffffffffffffff16612af782611724565b73ffffffffffffffffffffffffffffffffffffffff1614612b4d576040517f08c379a0000000000000000000000000000000000000000000000000000000008152600401612b4490615601565b60405180910390fd5b6004600082815260200190815260200160002060006101000a81549073ffffffffffffffffffffffffffffffffffffffff02191690556001600360008573ffffffffffffffffffffffffffffffffffffffff1673ffffffffffffffffffffffffffffffffffffffff168152602001908152602001600020600082825403925050819055506001600360008473ffffffffffffffffffffffffffffffffffffffff1673ffffffffffffffffffffffffffffffffffffffff16815260200190815260200160002060008282540192505081905550816002600083815260200190815260200160002060006101000a81548173ffffffffffffffffffffffffffffffffffffffff021916908373ffffffffffffffffffffffffffffffffffffffff160217905550808273ffffffffffffffffffffffffffffffffffffffff168473ffffffffffffffffffffffffffffffffffffffff167fddf252ad1be2c89b69c2b068fc378daa952ba7f163c4a11628f55a4df523b3ef60405160405180910390a4612cd983838360016133ae565b505050565b60008273ffffffffffffffffffffffffffffffffffffffff1682604051612d04906156e4565b60006040518083038185875af1925050503d8060008114612d41576040519150601f19603f3d011682016040523d82523d6000602084013e612d46565b606091505b5050905080612d5457600080fd5b505050565b612d738282604051806020016040528060008152506133b4565b5050565b60006002600083815260200190815260200160002060009054906101000a900473ffffffffffffffffffffffffffffffffffffffff169050919050565b612dbc61288f565b73ffffffffffffffffffffffffffffffffffffffff16612dda61187b565b73ffffffffffffffffffffffffffffffffffffffff1614612e30576040517f08c379a0000000000000000000000000000000000000000000000000000000008152600401612e2790615745565b60405180910390fd5b565b6000600a60009054906101000a900473ffffffffffffffffffffffffffffffffffffffff16905081600a60006101000a81548173ffffffffffffffffffffffffffffffffffffffff021916908373ffffffffffffffffffffffffffffffffffffffff1602179055508173ffffffffffffffffffffffffffffffffffffffff168173ffffffffffffffffffffffffffffffffffffffff167f8be0079c531659141344cd1fd0a4f28419497f9722a3daafe3b4186f6b6457e060405160405180910390a35050565b8173ffffffffffffffffffffffffffffffffffffffff168373ffffffffffffffffffffffffffffffffffffffff1603612f66576040517f08c379a0000000000000000000000000000000000000000000000000000000008152600401612f5d906157b1565b60405180910390fd5b80600560008573ffffffffffffffffffffffffffffffffffffffff1673ffffffffffffffffffffffffffffffffffffffff16815260200190815260200160002060008473ffffffffffffffffffffffffffffffffffffffff1673ffffffffffffffffffffffffffffffffffffffff16815260200190815260200160002060006101000a81548160ff0219169083151502179055508173ffffffffffffffffffffffffffffffffffffffff168373ffffffffffffffffffffffffffffffffffffffff167f17307eab39ab6107e8899845ad3d59bd9653f200f220920489ca2b5937696c31836040516130579190613e8a565b60405180910390a3505050565b61306f8484846129e5565b61307b8484848461340f565b6130ba576040517f08c379a00000000000000000000000000000000000000000000000000000000081526004016130b190615843565b60405180910390fd5b50505050565b606060405180602001604052806000815250905090565b6060600060016130e684613596565b01905060008167ffffffffffffffff8111156131055761310461438d565b5b6040519080825280601f01601f1916602001820160405280156131375781602001600182028036833780820191505090505b509050600082602001820190505b60011561319a578080600190039150507f3031323334353637383961626364656600000000000000000000000000000000600a86061a8153600a858161318e5761318d614dc3565b5b04945060008503613145575b819350505050919050565b60007f01ffc9a7000000000000000000000000000000000000000000000000000000007bffffffffffffffffffffffffffffffffffffffffffffffffffffffff1916827bffffffffffffffffffffffffffffffffffffffffffffffffffffffff1916149050919050565b60008073ffffffffffffffffffffffffffffffffffffffff1661323183612d77565b73ffffffffffffffffffffffffffffffffffffffff1614159050919050565b61325c848484846136e9565b60018111156132a0576040517f08c379a0000000000000000000000000000000000000000000000000000000008152600401613297906158d5565b60405180910390fd5b6000829050600073ffffffffffffffffffffffffffffffffffffffff168573ffffffffffffffffffffffffffffffffffffffff16036132e7576132e28161380f565b613326565b8373ffffffffffffffffffffffffffffffffffffffff168573ffffffffffffffffffffffffffffffffffffffff1614613325576133248582613858565b5b5b600073ffffffffffffffffffffffffffffffffffffffff168473ffffffffffffffffffffffffffffffffffffffff160361336857613363816139c5565b6133a7565b8473ffffffffffffffffffffffffffffffffffffffff168473ffffffffffffffffffffffffffffffffffffffff16146133a6576133a58482613a96565b5b5b5050505050565b50505050565b6133be8383613b15565b6133cb600084848461340f565b61340a576040517f08c379a000000000000000000000000000000000000000000000000000000000815260040161340190615843565b60405180910390fd5b505050565b60006134308473ffffffffffffffffffffffffffffffffffffffff16613d32565b15613589578373ffffffffffffffffffffffffffffffffffffffff1663150b7a0261345961288f565b8786866040518563ffffffff1660e01b815260040161347b949392919061594a565b6020604051808303816000875af19250505080156134b757506040513d601f19601f820116820180604052508101906134b491906159ab565b60015b613539573d80600081146134e7576040519150601f19603f3d011682016040523d82523d6000602084013e6134ec565b606091505b506000815103613531576040517f08c379a000000000000000000000000000000000000000000000000000000000815260040161352890615843565b60405180910390fd5b805181602001fd5b63150b7a0260e01b7bffffffffffffffffffffffffffffffffffffffffffffffffffffffff1916817bffffffffffffffffffffffffffffffffffffffffffffffffffffffff19161491505061358e565b600190505b949350505050565b600080600090507a184f03e93ff9f4daa797ed6e38ed64bf6a1f01000000000000000083106135f4577a184f03e93ff9f4daa797ed6e38ed64bf6a1f01000000000000000083816135ea576135e9614dc3565b5b0492506040810190505b6d04ee2d6d415b85acef81000000008310613631576d04ee2d6d415b85acef8100000000838161362757613626614dc3565b5b0492506020810190505b662386f26fc10000831061366057662386f26fc10000838161365657613655614dc3565b5b0492506010810190505b6305f5e1008310613689576305f5e100838161367f5761367e614dc3565b5b0492506008810190505b61271083106136ae5761271083816136a4576136a3614dc3565b5b0492506004810190505b606483106136d157606483816136c7576136c6614dc3565b5b0492506002810190505b600a83106136e0576001810190505b80915050919050565b600181111561380957600073ffffffffffffffffffffffffffffffffffffffff168473ffffffffffffffffffffffffffffffffffffffff161461377d5780600360008673ffffffffffffffffffffffffffffffffffffffff1673ffffffffffffffffffffffffffffffffffffffff168152602001908152602001600020600082825461377591906148df565b925050819055505b600073ffffffffffffffffffffffffffffffffffffffff168373ffffffffffffffffffffffffffffffffffffffff16146138085780600360008573ffffffffffffffffffffffffffffffffffffffff1673ffffffffffffffffffffffffffffffffffffffff168152602001908152602001600020600082825461380091906159d8565b925050819055505b5b50505050565b6008805490506009600083815260200190815260200160002081905550600881908060018154018082558091505060019003906000526020600020016000909190919091505550565b60006001613865846117aa565b61386f91906148df565b9050600060076000848152602001908152602001600020549050818114613954576000600660008673ffffffffffffffffffffffffffffffffffffffff1673ffffffffffffffffffffffffffffffffffffffff168152602001908152602001600020600084815260200190815260200160002054905080600660008773ffffffffffffffffffffffffffffffffffffffff1673ffffffffffffffffffffffffffffffffffffffff168152602001908152602001600020600084815260200190815260200160002081905550816007600083815260200190815260200160002081905550505b6007600084815260200190815260200160002060009055600660008573ffffffffffffffffffffffffffffffffffffffff1673ffffffffffffffffffffffffffffffffffffffff16815260200190815260200160002060008381526020019081526020016000206000905550505050565b600060016008805490506139d991906148df565b9050600060096000848152602001908152602001600020549050600060088381548110613a0957613a08614913565b5b906000526020600020015490508060088381548110613a2b57613a2a614913565b5b906000526020600020018190555081600960008381526020019081526020016000208190555060096000858152602001908152602001600020600090556008805480613a7a57613a79615a0c565b5b6001900381819060005260206000200160009055905550505050565b6000613aa1836117aa565b905081600660008573ffffffffffffffffffffffffffffffffffffffff1673ffffffffffffffffffffffffffffffffffffffff168152602001908152602001600020600083815260200190815260200160002081905550806007600084815260200190815260200160002081905550505050565b600073ffffffffffffffffffffffffffffffffffffffff168273ffffffffffffffffffffffffffffffffffffffff1603613b84576040517f08c379a0000000000000000000000000000000000000000000000000000000008152600401613b7b90615a87565b60405180910390fd5b613b8d8161320f565b15613bcd576040517f08c379a0000000000000000000000000000000000000000000000000000000008152600401613bc490615af3565b60405180910390fd5b613bdb600083836001613250565b613be48161320f565b15613c24576040517f08c379a0000000000000000000000000000000000000000000000000000000008152600401613c1b90615af3565b60405180910390fd5b6001600360008473ffffffffffffffffffffffffffffffffffffffff1673ffffffffffffffffffffffffffffffffffffffff16815260200190815260200160002060008282540192505081905550816002600083815260200190815260200160002060006101000a81548173ffffffffffffffffffffffffffffffffffffffff021916908373ffffffffffffffffffffffffffffffffffffffff160217905550808273ffffffffffffffffffffffffffffffffffffffff16600073ffffffffffffffffffffffffffffffffffffffff167fddf252ad1be2c89b69c2b068fc378daa952ba7f163c4a11628f55a4df523b3ef60405160405180910390a4613d2e6000838360016133ae565b5050565b6000808273ffffffffffffffffffffffffffffffffffffffff163b119050919050565b60405180610120016040528060008152602001600073ffffffffffffffffffffffffffffffffffffffff1681526020016000815260200160608152602001606081526020016060815260200160608152602001600081526020016000151581525090565b6000604051905090565b600080fd5b600080fd5b6000819050919050565b613de081613dcd565b8114613deb57600080fd5b50565b600081359050613dfd81613dd7565b92915050565b60008115159050919050565b613e1881613e03565b8114613e2357600080fd5b50565b600081359050613e3581613e0f565b92915050565b60008060408385031215613e5257613e51613dc3565b5b6000613e6085828601613dee565b9250506020613e7185828601613e26565b9150509250929050565b613e8481613e03565b82525050565b6000602082019050613e9f6000830184613e7b565b92915050565b60007fffffffff0000000000000000000000000000000000000000000000000000000082169050919050565b613eda81613ea5565b8114613ee557600080fd5b50565b600081359050613ef781613ed1565b92915050565b600060208284031215613f1357613f12613dc3565b5b6000613f2184828501613ee8565b91505092915050565b613f3381613dcd565b82525050565b6000602082019050613f4e6000830184613f2a565b92915050565b600081519050919050565b600082825260208201905092915050565b60005b83811015613f8e578082015181840152602081019050613f73565b60008484015250505050565b6000601f19601f8301169050919050565b6000613fb682613f54565b613fc08185613f5f565b9350613fd0818560208601613f70565b613fd981613f9a565b840191505092915050565b60006020820190508181036000830152613ffe8184613fab565b905092915050565b60006020828403121561401c5761401b613dc3565b5b600061402a84828501613dee565b91505092915050565b600073ffffffffffffffffffffffffffffffffffffffff82169050919050565b600061405e82614033565b9050919050565b61406e81614053565b82525050565b60006020820190506140896000830184614065565b92915050565b61409881614053565b81146140a357600080fd5b50565b6000813590506140b58161408f565b92915050565b600080604083850312156140d2576140d1613dc3565b5b60006140e0858286016140a6565b92505060206140f185828601613dee565b9150509250929050565b60008060006060848603121561411457614113613dc3565b5b6000614122868287016140a6565b9350506020614133868287016140a6565b925050604061414486828701613dee565b9150509250925092565b600081519050919050565b600082825260208201905092915050565b6000819050602082019050919050565b61418381613dcd565b82525050565b61419281614053565b82525050565b600082825260208201905092915050565b60006141b482613f54565b6141be8185614198565b93506141ce818560208601613f70565b6141d781613f9a565b840191505092915050565b6141eb81613e03565b82525050565b60006101208301600083015161420a600086018261417a565b50602083015161421d6020860182614189565b506040830151614230604086018261417a565b506060830151848203606086015261424882826141a9565b9150506080830151848203608086015261426282826141a9565b91505060a083015184820360a086015261427c82826141a9565b91505060c083015184820360c086015261429682826141a9565b91505060e08301516142ab60e086018261417a565b506101008301516142c06101008601826141e2565b508091505092915050565b60006142d783836141f1565b905092915050565b6000602082019050919050565b60006142f78261414e565b6143018185614159565b9350836020820285016143138561416a565b8060005b8581101561434f578484038952815161433085826142cb565b945061433b836142df565b925060208a01995050600181019050614317565b50829750879550505050505092915050565b6000602082019050818103600083015261437b81846142ec565b905092915050565b600080fd5b600080fd5b7f4e487b7100000000000000000000000000000000000000000000000000000000600052604160045260246000fd5b6143c582613f9a565b810181811067ffffffffffffffff821117156143e4576143e361438d565b5b80604052505050565b60006143f7613db9565b905061440382826143bc565b919050565b600067ffffffffffffffff8211156144235761442261438d565b5b61442c82613f9a565b9050602081019050919050565b82818337600083830152505050565b600061445b61445684614408565b6143ed565b90508281526020810184848401111561447757614476614388565b5b614482848285614439565b509392505050565b600082601f83011261449f5761449e614383565b5b81356144af848260208601614448565b91505092915050565b600080600080600060a086880312156144d4576144d3613dc3565b5b600086013567ffffffffffffffff8111156144f2576144f1613dc8565b5b6144fe8882890161448a565b955050602086013567ffffffffffffffff81111561451f5761451e613dc8565b5b61452b8882890161448a565b945050604086013567ffffffffffffffff81111561454c5761454b613dc8565b5b6145588882890161448a565b935050606086013567ffffffffffffffff81111561457957614578613dc8565b5b6145858882890161448a565b925050608061459688828901613dee565b9150509295509295909350565b6000610120830160008301516145bc600086018261417a565b5060208301516145cf6020860182614189565b5060408301516145e2604086018261417a565b50606083015184820360608601526145fa82826141a9565b9150506080830151848203608086015261461482826141a9565b91505060a083015184820360a086015261462e82826141a9565b91505060c083015184820360c086015261464882826141a9565b91505060e083015161465d60e086018261417a565b506101008301516146726101008601826141e2565b508091505092915050565b6000602082019050818103600083015261469781846145a3565b905092915050565b6000602082840312156146b5576146b4613dc3565b5b60006146c3848285016140a6565b91505092915050565b600080604083850312156146e3576146e2613dc3565b5b60006146f1858286016140a6565b925050602061470285828601613e26565b9150509250929050565b6000806040838503121561472357614722613dc3565b5b600061473185828601613dee565b925050602061474285828601613dee565b9150509250929050565b600067ffffffffffffffff8211156147675761476661438d565b5b61477082613f9a565b9050602081019050919050565b600061479061478b8461474c565b6143ed565b9050828152602081018484840111156147ac576147ab614388565b5b6147b7848285614439565b509392505050565b600082601f8301126147d4576147d3614383565b5b81356147e484826020860161477d565b91505092915050565b6000806000806080858703121561480757614806613dc3565b5b6000614815878288016140a6565b9450506020614826878288016140a6565b935050604061483787828801613dee565b925050606085013567ffffffffffffffff81111561485857614857613dc8565b5b614864878288016147bf565b91505092959194509250565b6000806040838503121561488757614886613dc3565b5b6000614895858286016140a6565b92505060206148a6858286016140a6565b9150509250929050565b7f4e487b7100000000000000000000000000000000000000000000000000000000600052601160045260246000fd5b60006148ea82613dcd565b91506148f583613dcd565b925082820390508181111561490d5761490c6148b0565b5b92915050565b7f4e487b7100000000000000000000000000000000000000000000000000000000600052603260045260246000fd5b7f4e487b7100000000000000000000000000000000000000000000000000000000600052602260045260246000fd5b6000600282049050600182168061498957607f821691505b60208210810361499c5761499b614942565b5b50919050565b7f4552433732313a20617070726f76616c20746f2063757272656e74206f776e6560008201527f7200000000000000000000000000000000000000000000000000000000000000602082015250565b60006149fe602183613f5f565b9150614a09826149a2565b604082019050919050565b60006020820190508181036000830152614a2d816149f1565b9050919050565b7f4552433732313a20617070726f76652063616c6c6572206973206e6f7420746f60008201527f6b656e206f776e6572206f7220617070726f76656420666f7220616c6c000000602082015250565b6000614a90603d83613f5f565b9150614a9b82614a34565b604082019050919050565b60006020820190508181036000830152614abf81614a83565b9050919050565b7f4552433732313a2063616c6c6572206973206e6f7420746f6b656e206f776e6560008201527f72206f7220617070726f76656400000000000000000000000000000000000000602082015250565b6000614b22602d83613f5f565b9150614b2d82614ac6565b604082019050919050565b60006020820190508181036000830152614b5181614b15565b9050919050565b7f455243373231456e756d657261626c653a206f776e657220696e646578206f7560008201527f74206f6620626f756e6473000000000000000000000000000000000000000000602082015250565b6000614bb4602b83613f5f565b9150614bbf82614b58565b604082019050919050565b60006020820190508181036000830152614be381614ba7565b9050919050565b7f457468657220746f6f206c6f7720666f72206d696e74696e6721000000000000600082015250565b6000614c20601a83613f5f565b9150614c2b82614bea565b602082019050919050565b60006020820190508181036000830152614c4f81614c13565b9050919050565b600081905092915050565b6000614c6c82613f54565b614c768185614c56565b9350614c86818560208601613f70565b80840191505092915050565b6000614c9e8284614c61565b915081905092915050565b7f54686973204e465420697320616c7265616479206d696e746564210000000000600082015250565b6000614cdf601b83613f5f565b9150614cea82614ca9565b602082019050919050565b60006020820190508181036000830152614d0e81614cd2565b9050919050565b7f53616c6573206e6f7420616c6c6f776564210000000000000000000000000000600082015250565b6000614d4b601283613f5f565b9150614d5682614d15565b602082019050919050565b60006020820190508181036000830152614d7a81614d3e565b9050919050565b6000614d8c82613dcd565b9150614d9783613dcd565b9250828202614da581613dcd565b91508282048414831517614dbc57614dbb6148b0565b5b5092915050565b7f4e487b7100000000000000000000000000000000000000000000000000000000600052601260045260246000fd5b6000614dfd82613dcd565b9150614e0883613dcd565b925082614e1857614e17614dc3565b5b828204905092915050565b6000614e2e82613dcd565b91507fffffffffffffffffffffffffffffffffffffffffffffffffffffffffffffffff8203614e6057614e5f6148b0565b5b600182019050919050565b60008190508160005260206000209050919050565b60006020601f8301049050919050565b600082821b905092915050565b600060088302614ecd7fffffffffffffffffffffffffffffffffffffffffffffffffffffffffffffffff82614e90565b614ed78683614e90565b95508019841693508086168417925050509392505050565b6000819050919050565b6000614f14614f0f614f0a84613dcd565b614eef565b613dcd565b9050919050565b6000819050919050565b614f2e83614ef9565b614f42614f3a82614f1b565b848454614e9d565b825550505050565b600090565b614f57614f4a565b614f62818484614f25565b505050565b5b81811015614f8657614f7b600082614f4f565b600181019050614f68565b5050565b601f821115614fcb57614f9c81614e6b565b614fa584614e80565b81016020851015614fb4578190505b614fc8614fc085614e80565b830182614f67565b50505b505050565b600082821c905092915050565b6000614fee60001984600802614fd0565b1980831691505092915050565b60006150078383614fdd565b9150826002028217905092915050565b61502082613f54565b67ffffffffffffffff8111156150395761503861438d565b5b6150438254614971565b61504e828285614f8a565b600060209050601f831160018114615081576000841561506f578287015190505b6150798582614ffb565b8655506150e1565b601f19841661508f86614e6b565b60005b828110156150b757848901518255600182019150602085019450602081019050615092565b868310156150d457848901516150d0601f891682614fdd565b8355505b6001600288020188555050505b505050505050565b60006080820190506150fe6000830187613f2a565b61510b6020830186613f2a565b818103604083015261511d8185613fab565b905061512c6060830184613f2a565b95945050505050565b7f455243373231456e756d657261626c653a20676c6f62616c20696e646578206f60008201527f7574206f6620626f756e64730000000000000000000000000000000000000000602082015250565b6000615191602c83613f5f565b915061519c82615135565b604082019050919050565b600060208201905081810360008301526151c081615184565b9050919050565b7f4552433732313a20696e76616c696420746f6b656e2049440000000000000000600082015250565b60006151fd601883613f5f565b9150615208826151c7565b602082019050919050565b6000602082019050818103600083015261522c816151f0565b9050919050565b7f4552433732313a2061646472657373207a65726f206973206e6f74206120766160008201527f6c6964206f776e65720000000000000000000000000000000000000000000000602082015250565b600061528f602983613f5f565b915061529a82615233565b604082019050919050565b600060208201905081810360008301526152be81615282565b9050919050565b7f457468657220746f6f206c6f7720666f72207075726368617365210000000000600082015250565b60006152fb601b83613f5f565b9150615306826152c5565b602082019050919050565b6000602082019050818103600083015261532a816152ee565b9050919050565b7f4f7065726174696f6e204e6f7420416c6c6f7765642100000000000000000000600082015250565b6000615367601683613f5f565b915061537282615331565b602082019050919050565b600060208201905081810360008301526153968161535a565b9050919050565b600081546153aa81614971565b6153b48186613f5f565b945060018216600081146153cf57600181146153e557615418565b60ff198316865281151560200286019350615418565b6153ee85614e6b565b60005b83811015615410578154818901526001820191506020810190506153f1565b808801955050505b50505092915050565b60006080820190506154366000830187613f2a565b6154436020830186613f2a565b8181036040830152615455818561539d565b90506154646060830184613f2a565b95945050505050565b7f457468657220746f6f206c6f7721000000000000000000000000000000000000600082015250565b60006154a3600e83613f5f565b91506154ae8261546d565b602082019050919050565b600060208201905081810360008301526154d281615496565b9050919050565b60006154e58285614c61565b91506154f18284614c61565b91508190509392505050565b7f4f776e61626c653a206e6577206f776e657220697320746865207a65726f206160008201527f6464726573730000000000000000000000000000000000000000000000000000602082015250565b6000615559602683613f5f565b9150615564826154fd565b604082019050919050565b600060208201905081810360008301526155888161554c565b9050919050565b7f4552433732313a207472616e736665722066726f6d20696e636f72726563742060008201527f6f776e6572000000000000000000000000000000000000000000000000000000602082015250565b60006155eb602583613f5f565b91506155f68261558f565b604082019050919050565b6000602082019050818103600083015261561a816155de565b9050919050565b7f4552433732313a207472616e7366657220746f20746865207a65726f2061646460008201527f7265737300000000000000000000000000000000000000000000000000000000602082015250565b600061567d602483613f5f565b915061568882615621565b604082019050919050565b600060208201905081810360008301526156ac81615670565b9050919050565b600081905092915050565b50565b60006156ce6000836156b3565b91506156d9826156be565b600082019050919050565b60006156ef826156c1565b9150819050919050565b7f4f776e61626c653a2063616c6c6572206973206e6f7420746865206f776e6572600082015250565b600061572f602083613f5f565b915061573a826156f9565b602082019050919050565b6000602082019050818103600083015261575e81615722565b9050919050565b7f4552433732313a20617070726f766520746f2063616c6c657200000000000000600082015250565b600061579b601983613f5f565b91506157a682615765565b602082019050919050565b600060208201905081810360008301526157ca8161578e565b9050919050565b7f4552433732313a207472616e7366657220746f206e6f6e20455243373231526560008201527f63656976657220696d706c656d656e7465720000000000000000000000000000602082015250565b600061582d603283613f5f565b9150615838826157d1565b604082019050919050565b6000602082019050818103600083015261585c81615820565b9050919050565b7f455243373231456e756d657261626c653a20636f6e736563757469766520747260008201527f616e7366657273206e6f7420737570706f727465640000000000000000000000602082015250565b60006158bf603583613f5f565b91506158ca82615863565b604082019050919050565b600060208201905081810360008301526158ee816158b2565b9050919050565b600081519050919050565b600082825260208201905092915050565b600061591c826158f5565b6159268185615900565b9350615936818560208601613f70565b61593f81613f9a565b840191505092915050565b600060808201905061595f6000830187614065565b61596c6020830186614065565b6159796040830185613f2a565b818103606083015261598b8184615911565b905095945050505050565b6000815190506159a581613ed1565b92915050565b6000602082840312156159c1576159c0613dc3565b5b60006159cf84828501615996565b91505092915050565b60006159e382613dcd565b91506159ee83613dcd565b9250828201905080821115615a0657615a056148b0565b5b92915050565b7f4e487b7100000000000000000000000000000000000000000000000000000000600052603160045260246000fd5b7f4552433732313a206d696e7420746f20746865207a65726f2061646472657373600082015250565b6000615a71602083613f5f565b9150615a7c82615a3b565b602082019050919050565b60006020820190508181036000830152615aa081615a64565b9050919050565b7f4552433732313a20746f6b656e20616c7265616479206d696e74656400000000600082015250565b6000615add601c83613f5f565b9150615ae882615aa7565b602082019050919050565b60006020820190508181036000830152615b0c81615ad0565b905091905056fea2646970667358221220d38b0d6816d9d1f61f0e2addc2d25c031f1cc984d02413a11f74ca4e70fccc6264736f6c63430008110033",
  "immutableReferences": {},
  "source": "// SPDX-License-Identifier: MIT\npragma solidity >=0.7.0 <0.9.0;\n\nimport \"../../node_modules/@openzeppelin/contracts/token/ERC721/ERC721.sol\";\nimport \"../../node_modules/@openzeppelin/contracts/token/ERC721/extensions/ERC721Enumerable.sol\";\nimport \"../../node_modules/@openzeppelin/contracts/access/Ownable.sol\";\nimport \"../../node_modules/@openzeppelin/contracts/utils/Strings.sol\";\n\n// This part will be in english since there won't be any italian customer reading internal files\n\ncontract WineNFT is ERC721Enumerable, Ownable {\n    using Strings for uint256;\n\n    mapping(string => uint8) existingURIs;\n    mapping(uint256 => address) public holderOf;\n\n    address public artist;\n    uint256 public royalityFee;\n    uint256 public supply = 0;\n    uint256 public totalTx = 0;\n    uint256 public cost = 0.0001 ether;\n\n    event Sale(\n        uint256 id,\n        address indexed owner,\n        uint256 cost,\n        string metadataURI,\n        uint256 timestamp\n    );\n\n    struct TransactionStruct {\n        uint256 id;\n        address owner;\n        uint256 cost;\n        string title;\n        string year;\n        string description;\n        string metadataURI;\n        uint256 timestamp;\n        bool isBuyable;\n    }\n\n    TransactionStruct[] transactions;\n    TransactionStruct[] minted;\n\n    constructor(\n        string memory _name,\n        string memory _symbol,\n        uint256 _royalityFee,\n        address _artist\n    ) ERC721(_name, _symbol) {\n        royalityFee = _royalityFee;\n        artist = _artist;\n    }\n\n    function payToMint(\n        string memory title,\n        string memory description,\n        string memory metadataURI,\n        string memory year,\n        uint256 salesPrice\n    ) external payable {\n        require(msg.value >= cost, \"Ether too low for minting!\");\n        require(existingURIs[metadataURI] == 0, \"This NFT is already minted!\");\n        require(msg.sender != owner(), \"Sales not allowed!\");\n\n        uint256 royality = (msg.value * royalityFee) / 100;\n        payTo(artist, royality);\n        payTo(owner(), (msg.value - royality));\n\n        supply++;\n\n        minted.push(\n            TransactionStruct(\n                supply,\n                msg.sender,\n                salesPrice,\n                title,\n                description,\n                metadataURI,\n                year,\n                block.timestamp,\n                true\n            )\n        );\n\n        emit Sale(supply, msg.sender, msg.value, metadataURI, block.timestamp);\n\n        _safeMint(msg.sender, supply);\n        existingURIs[metadataURI] = 1;\n        holderOf[supply] = msg.sender;\n    }\n\n    function payToBuy(uint256 id) external payable {\n        require(\n            msg.value >= minted[id - 1].cost,\n            \"Ether too low for purchase!\"\n        );\n        require(msg.sender != minted[id - 1].owner, \"Operation Not Allowed!\");\n        require(minted[id - 1].isBuyable);\n\n        uint256 royality = (msg.value * royalityFee) / 100;\n        payTo(artist, royality);\n        payTo(minted[id - 1].owner, (msg.value - royality));\n\n        totalTx++;\n\n        // By default i'd like to have a non buyable token so the new user can check the bottle he bought and then change the price accordingly or else\n        transactions.push(\n            TransactionStruct(\n                totalTx,\n                msg.sender,\n                msg.value,\n                minted[id - 1].title,\n                minted[id - 1].description,\n                minted[id - 1].metadataURI,\n                minted[id - 1].year,\n                block.timestamp,\n                false\n            )\n        );\n\n        emit Sale(\n            totalTx,\n            msg.sender,\n            msg.value,\n            minted[id - 1].metadataURI,\n            block.timestamp\n        );\n\n        minted[id - 1].owner = msg.sender;\n    }\n\n    function changePrice(uint256 id, uint256 newPrice) external returns (bool) {\n        require(newPrice > 0 ether, \"Ether too low!\");\n        require(msg.sender == minted[id - 1].owner, \"Operation Not Allowed!\");\n\n        minted[id - 1].cost = newPrice;\n        return true;\n    }\n\n    function changePrivacy(uint256 id, bool isBuyable) external returns (bool) {\n        require(isBuyable != minted[id - 1].isBuyable);\n        minted[id - 1].isBuyable = isBuyable;\n        return true;\n    }\n\n    function payTo(address to, uint256 amount) internal {\n        (bool success, ) = payable(to).call{value: amount}(\"\");\n        require(success);\n    }\n\n    function getAllNFTs() external view returns (TransactionStruct[] memory) {\n        return minted;\n    }\n\n    function getNFT(\n        uint256 id\n    ) external view returns (TransactionStruct memory) {\n        return minted[id - 1];\n    }\n\n    function getAllTransactions()\n        external\n        view\n        returns (TransactionStruct[] memory)\n    {\n        return transactions;\n    }\n}\n",
  "sourcePath": "/Users/alessandropucci/Desktop/progetti personali/nft-marketplace/nft-marketplace-frontend/contracts/contracts/NFTMarketplace.sol",
  "compiler": {
    "name": "solc",
    "version": "0.8.17+commit.8df45f5f.Emscripten.clang"
  },
  "schemaVersion": "3.4.11",
  "updatedAt": "2023-03-11T21:05:40.238Z",
  "networkType": "ethereum",
  "devdoc": {
    "kind": "dev",
    "methods": {
      "approve(address,uint256)": {
        "details": "See {IERC721-approve}."
      },
      "balanceOf(address)": {
        "details": "See {IERC721-balanceOf}."
      },
      "getApproved(uint256)": {
        "details": "See {IERC721-getApproved}."
      },
      "isApprovedForAll(address,address)": {
        "details": "See {IERC721-isApprovedForAll}."
      },
      "name()": {
        "details": "See {IERC721Metadata-name}."
      },
      "owner()": {
        "details": "Returns the address of the current owner."
      },
      "ownerOf(uint256)": {
        "details": "See {IERC721-ownerOf}."
      },
      "renounceOwnership()": {
        "details": "Leaves the contract without owner. It will not be possible to call `onlyOwner` functions anymore. Can only be called by the current owner. NOTE: Renouncing ownership will leave the contract without an owner, thereby removing any functionality that is only available to the owner."
      },
      "safeTransferFrom(address,address,uint256)": {
        "details": "See {IERC721-safeTransferFrom}."
      },
      "safeTransferFrom(address,address,uint256,bytes)": {
        "details": "See {IERC721-safeTransferFrom}."
      },
      "setApprovalForAll(address,bool)": {
        "details": "See {IERC721-setApprovalForAll}."
      },
      "supportsInterface(bytes4)": {
        "details": "See {IERC165-supportsInterface}."
      },
      "symbol()": {
        "details": "See {IERC721Metadata-symbol}."
      },
      "tokenByIndex(uint256)": {
        "details": "See {IERC721Enumerable-tokenByIndex}."
      },
      "tokenOfOwnerByIndex(address,uint256)": {
        "details": "See {IERC721Enumerable-tokenOfOwnerByIndex}."
      },
      "tokenURI(uint256)": {
        "details": "See {IERC721Metadata-tokenURI}."
      },
      "totalSupply()": {
        "details": "See {IERC721Enumerable-totalSupply}."
      },
      "transferFrom(address,address,uint256)": {
        "details": "See {IERC721-transferFrom}."
      },
      "transferOwnership(address)": {
        "details": "Transfers ownership of the contract to a new account (`newOwner`). Can only be called by the current owner."
      }
    },
    "version": 1
  },
  "userdoc": {
    "kind": "user",
    "methods": {},
    "version": 1
  }
}